:100000000C942A000C9446160C947E160C94B6168A
:100010000C9447000C9447000C9447000C94470044
:100020000C9447000C9447000C9447000C94470034
:100030000C9447000C94021A0C9447000C945F1A1D
:100040000C943A030C9447000C9447000C9447001E
:100050000C94470011241FBECFE5D8E0DEBFCDBF12
:1000600010E0A0E6B0E0ECE7FAE302C005900D92E4
:10007000A836B107D9F720E0A8E6B0E001C01D928C
:10008000A138B207E1F70E94C51A0C943C1D0C94EC
:100090000000CF93DF93CDB7DEB787E290E0FC019D
:1000A000208187E290E02064FC01208387E290E0D9
:1000B000FC01208187E290E02F77FC01208387E21A
:1000C00090E0FC01208187E290E02F7DFC012083FD
:1000D00086E290E0FC01208186E290E0287FFC012E
:1000E000208386E290E0FC01208186E290E0276098
:1000F000FC01208386E290E0FC01208186E290E012
:100100002F7DFC01208386E290E0FC01208186E2C5
:1001100090E02068FC01208386E290E0FC012081D1
:1001200086E290E0277FFC0120830000DF91CF91E1
:100130000895CF93DF93CDB7DEB786E290E0FC0160
:10014000208186E290E02068FC0120830000DF919E
:10015000CF910895CF93DF93CDB7DEB786E290E0DD
:10016000FC01208186E290E02F77FC0120830000D3
:10017000DF91CF910895CF93DF93CDB7DEB786E2BD
:1001800090E0FC01208186E290E02860FC01208361
:100190000000DF91CF910895CF93DF93CDB7DEB705
:1001A00086E290E0FC01208186E290E0277FFC015E
:1001B00020830000DF91CF910895CF93DF9300D08B
:1001C000CDB7DEB78A8381E089838A81882331F0C5
:1001D0008A81813019F08A81833009F587E290E0C5
:1001E000FC01408187E290E04F73FC01408387E28D
:1001F00090E0FC018081482F8A81882F90E0382F81
:1002000036953695282F2295220F220F207C822F9B
:10021000242F282B87E290E0FC012083198289811A
:100220000F900F90DF91CF910895CF93DF9300D07F
:10023000CDB7DEB78A8381E089838A818830A0F4D4
:1002400086E290E0FC01208186E290E0287FFC01BC
:10025000208386E290E0FC01308186E290E02A81F2
:10026000232BFC012083198289810F900F90DF914D
:10027000CF910895CF93DF9300D0CDB7DEB78A83B7
:1002800019828A81882351F487E290E0FC01208161
:1002900087E290E02F7DFC0120830FC08A818130AE
:1002A00051F487E290E0FC01208187E290E0206237
:1002B000FC01208302C081E0898389810F900F9027
:1002C000DF91CF910895CF93DF9300D0CDB7DEB704
:1002D0008A8319828A81883051F486E290E0FC0199
:1002E000208186E290E02F7DFC01208320C08A815E
:1002F0008830D8F486E290E0FC01208186E290E02C
:100300002062FC01208380E590E0FC01208180E5F3
:1003100090E02F71FC01208320E530E080E590E043
:10032000F9012081FC01208302C081E08983898159
:100330000F900F90DF91CF910895CF93DF93CDB7BA
:10034000DEB728970FB6F894DEBF0FBECDBF8E8301
:1003500078876F8319821A821B821C821D828F818B
:100360009885892B09F477C080917100882309F062
:100370006FC081E0809371008E81803298F487E2B3
:1003800090E0FC01208187E290E0207EFC01208348
:1003900087E290E0FC01308187E290E02E81232B00
:1003A000FC01208386E290E0FC01208186E290E05F
:1003B0002064FC0120830BC08A819B81AC81BD81BC
:1003C0000196A11DB11D8A839B83AC83BD8386E208
:1003D00090E0FC018081882F90E080719927892B23
:1003E00049F48A819B81AC81BD818035934CA10504
:1003F000B10510F38A819B81AC81BD818035934C1E
:10040000A105B10519F481E089831FC086E290E05F
:10041000FC01208186E290E02061FC01208384E2DF
:1004200090E0FC018081282F30E085E290E0FC0123
:100430008081882F90E0982F8827822B932B9C0116
:100440008F819885FC01318320831092710005C053
:1004500083E0898302C082E08983898128960FB670
:10046000F894DEBF0FBECDBFDF91CF910895CF933B
:10047000DF9300D000D000D0CDB7DEB78A837C8375
:100480006B835E834D8319828B819C81892B09F458
:1004900046C08D819E81892B09F441C080917100F5
:1004A0008823D1F581E08093710010926C008B81DC
:1004B0009C8190936900809368008D819E819093C8
:1004C0006B0080936A008A81803298F487E290E022
:1004D000FC01208187E290E0207EFC01208387E2FE
:1004E00090E0FC01308187E290E02A81232BFC011F
:1004F000208386E290E0FC01208186E290E0206487
:10050000FC01208386E290E0FC01208186E290E0FD
:100510002860FC01208305C083E0898302C082E05B
:100520008983898126960FB6F894DEBF0FBECDBFB2
:10053000DF91CF910895CF93DF9300D01F92CDB775
:10054000DEB79B838A8319828A819B81892B09F478
:1005500088C08A819B81FC0180819181892B09F46B
:1005600080C08A819B81FC0185819681892B09F459
:1005700078C08A819B81FC0182819381892B09F457
:1005800070C080917100882309F068C081E0809379
:10059000710081E080936C008A819B81FC018281E3
:1005A000938190936900809368008A819B81FC010C
:1005B0008081918190936E0080936D008A819B81F0
:1005C000FC01848180936F008A819B81FC0185817D
:1005D000968190936B0080936A0010927000209136
:1005E0006D0030916E0080917000882F90E0820F36
:1005F000931FFC0180818032F0F487E290E0FC01DF
:10060000208187E290E0207EFC01208387E290E059
:10061000FC01408120916D0030916E00809170004E
:10062000882F90E0820F931FFC01208187E290E0E9
:10063000242BFC01208386E290E0FC01208186E2ED
:1006400090E02064FC01208386E290E0FC012081A0
:1006500086E290E02860FC01208305C083E0898366
:1006600002C082E0898389810F900F900F90DF9103
:10067000CF9108951F920F920FB60F9211242F93CE
:100680003F934F935F936F937F938F939F93AF931A
:10069000BF93EF93FF93CF93DF93CDB7DEB78091F6
:1006A0006C00882349F584E290E0FC018081282FCA
:1006B00030E085E290E0FC018081882F90E0982F67
:1006C0008827282B392B8091680090916900FC01C4
:1006D000318320831092710080916A0090916B00A9
:1006E000FC01099586E290E0FC01208186E290E021
:1006F000277FFC01208378C080916C00813009F055
:1007000073C084E290E0FC018081282F30E085E214
:1007100090E0FC018081882F90E0982F8827A90124
:10072000482B592B2091680030916900809170000E
:10073000882F90E0880F991F820F931F9A01FC0168
:1007400031832083809170008F5F8093700090913F
:10075000700080916F00981791F410927100809151
:100760006A0090916B00FC01099586E290E0FC0123
:10077000208186E290E0277FFC01208335C0209114
:100780006D0030916E0080917000882F90E0820F94
:10079000931FFC0180818032F0F487E290E0FC013D
:1007A000208187E290E0207EFC01208387E290E0B8
:1007B000FC01408120916D0030916E0080917000AD
:1007C000882F90E0820F931FFC01208187E290E048
:1007D000242BFC01208386E290E0FC01208186E24C
:1007E00090E02064FC0120830000DF91CF91FF9115
:1007F000EF91BF91AF919F918F917F916F915F9199
:100800004F913F912F910F900FBE0F901F90189511
:100810000F931F93CF93DF93CDB7DEB7C654D109A3
:100820000FB6F894DEBF0FBECDBF80E090E0A8E425
:10083000B2E489AF9AAFABAFBCAF20E030E04AEF93
:1008400054E469AD7AAD8BAD9CAD0E94CF1CDC0148
:10085000CB019E01235C3F4FF90180839183A283EA
:10086000B38320E030E040E85FE3CE01CD96FC01A9
:1008700060817181828193810E94911B88234CF455
:10088000CE018F5B9F4F21E030E0FC01318320835C
:1008900067C020E03FEF4FE757E4CE01CD96FC0163
:1008A00060817181828193810E94CA1C18160CF0AC
:1008B00046C020E030E040E251E469AD7AAD8BAD56
:1008C0009CAD0E94CF1CDC01CB018E010F5B1F4F42
:1008D000BC01CD010E94D91BDC01CB01F801918341
:1008E000808324C0CE018D5B9F4F28EC30E0FC015B
:1008F00031832083CE018D5B9F4FFC0180819181EC
:100900000197F1F79E012D5B3F4FF90191838083A1
:10091000CE018F5B9F4F9E012F5B3F4FF9012081DE
:10092000318121503109FC0131832083CE018F5B5D
:100930009F4FFC0180819181892BA1F62BC08E01F4
:100940000F5B1F4FCE01CD96FC01608171818281CA
:1009500093810E94D91BDC01CB01F8019183808334
:10096000CE018B5B9F4F9E012F5B3F4FF901208192
:100970003181FC0131832083CE018B5B9F4FFC01D1
:10098000808191810197F1F79E012B5B3F4FF90127
:100990009183808341E060E082E00E94210C41E08D
:1009A00061E082E00E94210C41E062E082E00E946E
:1009B000210C41E063E082E00E94210C41E067E00D
:1009C00082E00E94210C41E066E082E00E94210C5E
:1009D00041E065E082E00E94210C82E00E94F40682
:1009E00080E090E0A0E2B1E48BA79CA7ADA7BEA7F2
:1009F00020E030E04AEF54E46BA57CA58DA59EA5D0
:100A00000E94CF1CDC01CB018FA798ABA9ABBAAB7E
:100A100020E030E040E85FE36FA578A989A99AA9B2
:100A20000E94911B88232CF481E090E09CAB8BAB5F
:100A30003FC020E03FEF4FE757E46FA578A989A9B1
:100A40009AA90E94CA1C18164CF520E030E040E23A
:100A500051E46BA57CA58DA59EA50E94CF1CDC0151
:100A6000CB01BC01CD010E94D91BDC01CB019CABA9
:100A70008BAB0FC088EC90E09EAB8DAB8DA99EA98F
:100A80000197F1F79EAB8DAB8BA99CA901979CAB0D
:100A90008BAB8BA99CA9892B69F714C06FA578A98A
:100AA00089A99AA90E94D91BDC01CB019CAB8BAB15
:100AB0008BA99CA998AF8FAB8FA998AD0197F1F73F
:100AC00098AF8FAB88E20E94F40680E090E0A0E847
:100AD000BFE38D8F9E8FAF8FB8A320E030E04AEF49
:100AE00054E46D8D7E8D8F8D98A10E94CF1CDC010A
:100AF000CB0189A39AA3ABA3BCA320E030E040E8DC
:100B00005FE369A17AA18BA19CA10E94911B88231C
:100B10002CF481E090E09EA38DA33FC020E03FEF46
:100B20004FE757E469A17AA18BA19CA10E94CA1C3E
:100B300018164CF520E030E040E251E46D8D7E8DDA
:100B40008F8D98A10E94CF1CDC01CB01BC01CD018F
:100B50000E94D91BDC01CB019EA38DA30FC088ECA2
:100B600090E098A78FA38FA198A50197F1F798A778
:100B70008FA38DA19EA101979EA38DA38DA19EA160
:100B8000892B69F714C069A17AA18BA19CA10E944D
:100B9000D91BDC01CB019EA38DA38DA19EA19AA799
:100BA00089A789A59AA50197F1F79AA789A78CE04B
:100BB0000E94F40680E090E0A0E8BFE38F87988B66
:100BC000A98BBA8B20E030E04AEF54E46F85788936
:100BD00089899A890E94CF1CDC01CB018B8B9C8B6D
:100BE000AD8BBE8B20E030E040E85FE36B897C8911
:100BF0008D899E890E94911B88232CF481E090E0CE
:100C0000988F8F8B3FC020E03FEF4FE757E46B8911
:100C10007C898D899E890E94CA1C18164CF520E09B
:100C200030E040E251E46F85788989899A890E9491
:100C3000CF1CDC01CB01BC01CD010E94D91BDC0122
:100C4000CB01988F8F8B0FC088EC90E09A8F898FA3
:100C5000898D9A8D0197F1F79A8F898F8F89988D59
:100C60000197988F8F8B8F89988D892B69F714C086
:100C70006B897C898D899E890E94D91BDC01CB01FF
:100C8000988F8F8B8F89988D9C8F8B8F8B8D9C8D60
:100C90000197F1F79C8F8B8F0E941A0886E00E94C3
:100CA000F40680E090E0A0E8BFE389839A83AB83F9
:100CB000BC8320E030E04AEF54E469817A818B8183
:100CC0009C810E94CF1CDC01CB018D839E83AF836E
:100CD000B88720E030E040E85FE36D817E818F815E
:100CE00098850E94911B88232CF481E090E09A87DC
:100CF00089873FC020E03FEF4FE757E46D817E8159
:100D00008F8198850E94CA1C18164CF520E030E0AF
:100D100040E251E469817A818B819C810E94CF1CE1
:100D2000DC01CB01BC01CD010E94D91BDC01CB0150
:100D30009A8789870FC088EC90E09C878B878B858A
:100D40009C850197F1F79C878B8789859A85019708
:100D50009A87898789859A85892B69F714C06D815F
:100D60007E818F8198850E94D91BDC01CB019A87F7
:100D7000898789859A859E878D878D859E85019730
:100D8000F1F79E878D870000CA5BDF4F0FB6F8949E
:100D9000DEBF0FBECDBFDF91CF911F910F910895A0
:100DA000CF93DF931F92CDB7DEB7898341E067E031
:100DB00082E00E94240D40E066E082E00E94240D63
:100DC000898182958F70682F82E00E94F1110E94C4
:100DD0001807698182E00E94F1110E941807000043
:100DE0000F90DF91CF910895CF93DF931F92CDB7EE
:100DF000DEB7898340E067E082E00E94240D40E096
:100E000066E082E00E94240D898182958F70682FB0
:100E100082E00E94F1110E941807698182E00E941D
:100E2000F1110E94180700000F90DF91CF910895F3
:100E3000CF93DF93CDB7DEB76C970FB6F894DEBFD4
:100E40000FBECDBF41E065E082E00E94240D80E04E
:100E500090E0A0E8BFE38F87988BA98BBA8B20E046
:100E600030E04AEF54E46F85788989899A890E9435
:100E7000CF1CDC01CB018B8B9C8BAD8BBE8B20E020
:100E800030E040E85FE36B897C898D899E890E9410
:100E9000911B88232CF481E090E0988F8F8B3FC0CA
:100EA00020E03FEF4FE757E46B897C898D899E896D
:100EB0000E94CA1C18164CF520E030E040E251E4D4
:100EC0006F85788989899A890E94CF1CDC01CB01C2
:100ED000BC01CD010E94D91BDC01CB01988F8F8B07
:100EE0000FC088EC90E09A8F898F898D9A8D019739
:100EF000F1F79A8F898F8F89988D0197988F8F8BB3
:100F00008F89988D892B69F714C06B897C898D89AD
:100F10009E890E94D91BDC01CB01988F8F8B8F8912
:100F2000988D9C8F8B8F8B8D9C8D0197F1F79C8F6B
:100F30008B8F40E065E082E00E94240D80E090E02D
:100F4000A0E8BFE389839A83AB83BC8320E030E0D1
:100F50004AEF54E469817A818B819C810E94CF1C85
:100F6000DC01CB018D839E83AF83B88720E030E026
:100F700040E85FE36D817E818F8198850E94911B9F
:100F800088232CF481E090E09A8789873FC020E095
:100F90003FEF4FE757E46D817E818F8198850E94F6
:100FA000CA1C18164CF520E030E040E251E469819B
:100FB0007A818B819C810E94CF1CDC01CB01BC011A
:100FC000CD010E94D91BDC01CB019A8789870FC014
:100FD00088EC90E09C878B878B859C850197F1F747
:100FE0009C878B8789859A8501979A8789878985C8
:100FF0009A85892B69F714C06D817E818F819885D0
:101000000E94D91BDC01CB019A87898789859A8543
:101010009E878D878D859E850197F1F79E878D87A9
:1010200000006C960FB6F894DEBF0FBECDBFDF9107
:10103000CF910895CF93DF93CDB7DEB72E970FB63C
:10104000F894DEBF0FBECDBF81E00E94F40680E0C1
:1010500090E0A0E2B1E489839A83AB83BC8320E073
:1010600030E04AEF54E469817A818B819C810E944F
:10107000CF1CDC01CB018D839E83AF83B88720E03A
:1010800030E040E85FE36D817E818F8198850E942A
:10109000911B88232CF481E090E09A8789873FC0D8
:1010A00020E03FEF4FE757E46D817E818F81988587
:1010B0000E94CA1C18164CF520E030E040E251E4D2
:1010C00069817A818B819C810E94CF1CDC01CB01DC
:1010D000BC01CD010E94D91BDC01CB019A87898715
:1010E0000FC088EC90E09C878B878B859C8501974F
:1010F000F1F79C878B8789859A8501979A878987DD
:1011000089859A85892B69F714C06D817E818F81CD
:1011100098850E94D91BDC01CB019A878987898534
:101120009A859E878D878D859E850197F1F79E878D
:101130008D8700002E960FB6F894DEBF0FBECDBF90
:10114000DF91CF910895CF93DF9300D01F92CDB759
:10115000DEB79B838A8319820EC08981882F90E035
:101160002A813B81820F931FFC0180810E94D0065F
:1011700089818F5F89838981882F90E02A813B81D3
:10118000820F931FFC018081882339F700000F90A4
:101190000F900F90DF91CF910895EF92FF920F93F0
:1011A0001F93CF93DF93CDB7DEB728970FB6F89490
:1011B000DEBF0FBECDBF6D837E838F83988781E0B6
:1011C00090E0A0E0B0E089839A83AB83BC838D81FB
:1011D0009E81AF81B885892B8A2B8B2B21F480E3EC
:1011E0000E94D0068FC08D819E81AF81B885BB23C0
:1011F0000CF053C08DE20E94D0068D819E81AF819C
:10120000B885B095A095909581959F4FAF4FBF4FF2
:101210008D839E83AF83B88740C029813A814B81FB
:101220005C81DA01C901880F991FAA1FBB1F880FB3
:10123000991FAA1FBB1F820F931FA41FB51F880FE2
:10124000991FAA1FBB1F7C018D018D819E81AF81DB
:10125000B8852AE030E040E050E0BC01CD010E94BA
:10126000F91ADC01CB018E0D9F1DA01FB11F8983D0
:101270009A83AB83BC838D819E81AF81B8852AE040
:1012800030E040E050E0BC01CD010E94F91ADA01E3
:10129000C9018D839E83AF83B8878D819E81AF8185
:1012A000B885892B8A2B8B2B09F0B7CF23C0898176
:1012B0009A81AB81BC812AE030E040E050E0BC0183
:1012C000CD010E94D71ADC01CB01805D0E94D006BF
:1012D00089819A81AB81BC812AE030E040E050E016
:1012E000BC01CD010E94D71ADA01C90189839A8312
:1012F000AB83BC8389819A81AB81BC810197A105B5
:10130000B105A9F6000028960FB6F894DEBF0FBE0F
:10131000CDBFDF91CF911F910F91FF90EF90089576
:10132000AF92BF92CF92DF92EF92FF920F931F93F3
:10133000CF93DF9300D000D0CDB7DEB769837A8337
:101340008B839C8369817A818B819C810E94D21BD3
:10135000DC01CB01BC01CD010E94CD0820E030E0D2
:10136000A90169817A818B819C810E94911B8823CC
:101370004CF489819A81AB81BC81B05889839A836E
:10138000AB83BC8369817A818B819C810E94D21B53
:10139000DC01CB01BC01CD010E940A1CDC01CB01A8
:1013A0009C01AD0169817A818B819C810E94241B03
:1013B000DC01CB0189839A83AB83BC8320E030E4DA
:1013C0004CE156E469817A818B819C810E94CF1C1B
:1013D000DC01CB0189839A83AB83BC8369817A81E9
:1013E0008B819C810E94961BA22EB32EC42ED52EDB
:1013F000E62EF72E082F192F2A2D3B2D4C2D5D2D73
:101400006E2D7F2D802F912FA0E00E94181B79F068
:101410008EE20E94D00669817A818B819C810E9434
:10142000D21BDC01CB01BC01CD010E94CD08000024
:101430000F900F900F900F90DF91CF911F910F9110
:10144000FF90EF90DF90CF90BF90AF900895CF9333
:10145000DF93CDB7DEB761970FB6F894DEBF0FBE4E
:10146000CDBF888B698B8889882349F0888985302E
:1014700030F48989882319F08989853118F080E84A
:1014800089831BC08889813021F4898981588983A7
:1014900014C08889823021F48989815489830DC0E0
:1014A0008889833021F489898D56898306C088898B
:1014B000843019F489898D52898389810E94F406C8
:1014C00080E090E0A0E8BFE38A839B83AC83BD8388
:1014D00020E030E04AEF54E46A817B818C819D8179
:1014E0000E94CF1CDC01CB018E839F83A887B98724
:1014F00020E030E040E85FE36E817F818885998558
:101500000E94911B88232CF481E090E09B878A87BE
:101510003FC020E03FEF4FE757E46E817F81888531
:1015200099850E94CA1C18164CF520E030E040E274
:1015300051E46A817B818C819D810E94CF1CDC01FA
:10154000CB01BC01CD010E94D91BDC01CB019B87E3
:101550008A870FC088EC90E09D878C878C859D855D
:101560000197F1F79D878C878A859B8501979B87DB
:101570008A878A859B85892B69F714C06E817F8154
:10158000888599850E94D91BDC01CB019B878A87BE
:101590008A859B859F878E878E859F850197F1F72A
:1015A0009F878E87000061960FB6F894DEBF0FBE4E
:1015B000CDBFDF91CF910895CF93DF9300D01F92DD
:1015C000CDB7DEB78A836B83198280E40E94F4066C
:1015D00019820CC08981882F90E0805A9F4FFC01AE
:1015E00080810E94D00689818F5F898389818830BC
:1015F00088F36B818A810E94270A198206C089813B
:101600000E94D00689818F5F898389818830B8F3F1
:1016100000000F900F900F90DF91CF910895CF931E
:10162000DF93CDB7DEB72E970FB6F894DEBF0FBEAF
:10163000CDBF8CE10E94F40680E090E0A0E8BFE31B
:1016400089839A83AB83BC8320E030E04AEF54E483
:1016500069817A818B819C810E94CF1CDC01CB0146
:101660008D839E83AF83B88720E030E040E85FE35E
:101670006D817E818F8198850E94911B88232CF437
:1016800081E090E09A8789873FC020E03FEF4FE7F5
:1016900057E46D817E818F8198850E94CA1C18163F
:1016A0004CF520E030E040E251E469817A818B81A1
:1016B0009C810E94CF1CDC01CB01BC01CD010E94AA
:1016C000D91BDC01CB019A8789870FC088EC90E099
:1016D0009C878B878B859C850197F1F79C878B87EF
:1016E00089859A8501979A87898789859A85892B23
:1016F00069F714C06D817E818F8198850E94D91B06
:10170000DC01CB019A87898789859A859E878D8799
:101710008D859E850197F1F79E878D8700002E9617
:101720000FB6F894DEBF0FBECDBFDF91CF91089505
:10173000CF93DF93CDB7DEB72E970FB6F894DEBF09
:101740000FBECDBF88E10E94F40680E090E0A0E8E3
:10175000BFE389839A83AB83BC8320E030E04AEF08
:1017600054E469817A818B819C810E94CF1CDC01C9
:10177000CB018D839E83AF83B88720E030E040E8C3
:101780005FE36D817E818F8198850E94911B882304
:101790002CF481E090E09A8789873FC020E03FEFFA
:1017A0004FE757E46D817E818F8198850E94CA1C26
:1017B00018164CF520E030E040E251E469817A816E
:1017C0008B819C810E94CF1CDC01CB01BC01CD012F
:1017D0000E94D91BDC01CB019A8789870FC088EC56
:1017E00090E09C878B878B859C850197F1F79C8780
:1017F0008B8789859A8501979A87898789859A85B4
:10180000892B69F714C06D817E818F8198850E9434
:10181000D91BDC01CB019A87898789859A859E87A8
:101820008D878D859E850197F1F79E878D870000B6
:101830002E960FB6F894DEBF0FBECDBFDF91CF91CD
:101840000895CF93DF9300D000D0CDB7DEB78A8361
:101850006B834C8381E089838A81843008F0EBC0FC
:101860008B81883008F0E7C08C81813009F06CC032
:101870008A81882F90E08130910519F1823091059D
:101880001CF4892B41F0D8C08230910581F1039777
:1018900009F443C0D1C08AE390E0FC018081482F65
:1018A0008B81282F30E081E090E002C0880F991FE3
:1018B0002A95E2F7242F282B8AE390E0FC0120836D
:1018C000B9C087E390E0FC018081482F8B81282FED
:1018D00030E081E090E002C0880F991F2A95E2F77E
:1018E000242F282B87E390E0FC012083A3C084E30E
:1018F00090E0FC018081482F8B81282F30E081E02F
:1019000090E002C0880F991F2A95E2F7242F282B18
:1019100084E390E0FC0120838DC081E390E0FC0132
:101920008081482F8B81282F30E081E090E002C039
:10193000880F991F2A95E2F7242F282B81E390E046
:10194000FC012083000076C08C81882309F070C0E0
:101950008A81882F90E08130910521F182309105B4
:101960001CF4892B41F068C08230910591F10397F6
:1019700009F446C061C08AE390E0FC018081482FF1
:101980008B81282F30E081E090E002C0880F991F02
:101990002A95E2F78095242F28238AE390E0FC0122
:1019A000208348C087E390E0FC018081482F8B8131
:1019B000282F30E081E090E002C0880F991F2A951F
:1019C000E2F78095242F282387E390E0FC01208311
:1019D00031C084E390E0FC018081482F8B81282F67
:1019E00030E081E090E002C0880F991F2A95E2F76D
:1019F0008095242F282384E390E0FC0120831AC0E3
:101A000081E390E0FC018081482F8B81282F30E01A
:101A100081E090E002C0880F991F2A95E2F7809537
:101A2000242F282381E390E0FC012083000002C0E2
:101A3000198202C001C0198289810F900F900F9006
:101A40000F90DF91CF910895CF93DF9300D000D016
:101A5000CDB7DEB78A836B834C8381E089838A812B
:101A6000843008F0EBC08B81883008F0E7C08C81AF
:101A7000813009F06CC08A81882F90E08130910517
:101A800019F1823091051CF4892B41F0D8C08230C5
:101A9000910581F1039709F443C0D1C08BE390E035
:101AA000FC018081482F8B81282F30E081E090E07D
:101AB00002C0880F991F2A95E2F7242F282B8BE369
:101AC00090E0FC012083B9C088E390E0FC018081B4
:101AD000482F8B81282F30E081E090E002C0880FF2
:101AE000991F2A95E2F7242F282B88E390E0FC0128
:101AF0002083A3C085E390E0FC018081482F8B8187
:101B0000282F30E081E090E002C0880F991F2A95CD
:101B1000E2F7242F282B85E390E0FC0120838DC081
:101B200082E390E0FC018081482F8B81282F30E0F8
:101B300081E090E002C0880F991F2A95E2F7242FD8
:101B4000282B82E390E0FC012083000076C08C818A
:101B5000882309F070C08A81882F90E08130910538
:101B600021F1823091051CF4892B41F068C082304C
:101B7000910591F1039709F446C061C08BE390E0B1
:101B8000FC018081482F8B81282F30E081E090E09C
:101B900002C0880F991F2A95E2F78095242F2823E9
:101BA0008BE390E0FC01208348C088E390E0FC01D7
:101BB0008081482F8B81282F30E081E090E002C0A7
:101BC000880F991F2A95E2F78095242F282388E310
:101BD00090E0FC01208331C085E390E0FC0180812E
:101BE000482F8B81282F30E081E090E002C0880FE1
:101BF000991F2A95E2F78095242F282385E390E00A
:101C0000FC0120831AC082E390E0FC018081482F10
:101C10008B81282F30E081E090E002C0880F991F6F
:101C20002A95E2F78095242F282382E390E0FC0197
:101C30002083000002C0198202C001C0198289817C
:101C40000F900F900F900F90DF91CF910895CF9349
:101C5000DF9300D000D01F92CDB7DEB78A836B83AD
:101C60005D834C8381E089838A81843008F099C048
:101C70008B81883008F095C08A81882F90E0813070
:101C8000910571F1823091051CF4892B49F08AC0CD
:101C90008230910509F444C0039709F461C082C001
:101CA00089E390E0FC018081282F30E08B81482F70
:101CB00050E081E090E002C0880F991F4A95E2F75A
:101CC000822393232B81222F30E002C095958795A4
:101CD0002A95E2F7282F8C819D81FC01208360C02A
:101CE00086E390E0FC018081282F30E08B81482F33
:101CF00050E081E090E002C0880F991F4A95E2F71A
:101D0000822393232B81222F30E002C09595879563
:101D10002A95E2F7282F8C819D81FC01208340C009
:101D200083E390E0FC018081282F30E08B81482FF5
:101D300050E081E090E002C0880F991F4A95E2F7D9
:101D4000822393232B81222F30E002C09595879523
:101D50002A95E2F7282F8C819D81FC01208320C0E9
:101D600080E390E0FC018081282F30E08B81482FB8
:101D700050E081E090E002C0880F991F4A95E2F799
:101D8000822393232B81222F30E002C095958795E3
:101D90002A95E2F7282F8C819D81FC012083000089
:101DA00001C0198289810F900F900F900F900F90B2
:101DB000DF91CF910895CF93DF9300D01F92CDB7DD
:101DC000DEB78A836B8381E089838A81843008F05F
:101DD00070C08B81883008F06CC08A81882F90E0B9
:101DE0008130910519F1823091051CF4892B41F065
:101DF00061C08230910581F1039709F443C05AC054
:101E00008BE390E0FC018081482F8B81282F30E00C
:101E100081E090E002C0880F991F2A95E2F7242FF5
:101E200028278BE390E0FC01208342C088E390E008
:101E3000FC018081482F8B81282F30E081E090E0E9
:101E400002C0880F991F2A95E2F7242F282788E3DC
:101E500090E0FC0120832CC085E390E0FC018081B0
:101E6000482F8B81282F30E081E090E002C0880F5E
:101E7000991F2A95E2F7242F282785E390E0FC019B
:101E8000208316C082E390E0FC018081482F8B8183
:101E9000282F30E081E090E002C0880F991F2A953A
:101EA000E2F7242F282782E390E0FC012083000042
:101EB00001C0198289810F900F900F90DF91CF910F
:101EC0000895CF93DF9300D000D0CDB7DEB78A83DB
:101ED0006B834C8381E089838A81843008F056C10A
:101EE0008B81883008F052C18A81882F90E0813040
:101EF000910509F45DC0823091051CF4892B49F0ED
:101F000046C18230910509F4A2C0039709F4EEC0DE
:101F10003EC18C818130A9F580E590E0FC012081F3
:101F200080E590E02B7FFC0120838AE390E0FC01B8
:101F30008081482F8B81282F30E081E090E002C023
:101F4000880F991F2A95E2F78095242F28238AE38A
:101F500090E0FC0120838BE390E0FC018081482F1E
:101F60008B81282F30E081E090E002C0880F991F1C
:101F70002A95E2F7242F282B8BE390E0FC012083A5
:101F800004C18BE390E0FC018081482F8B81282FD6
:101F900030E081E090E002C0880F991F2A95E2F7B7
:101FA0008095242F28238BE390E0FC012083EDC053
:101FB0008C818130A9F580E590E0FC01208180E5ED
:101FC00090E02B7FFC01208387E390E0FC0180817F
:101FD000482F8B81282F30E081E090E002C0880FED
:101FE000991F2A95E2F78095242F282387E390E014
:101FF000FC01208388E390E0FC018081482F8B81E5
:10200000282F30E081E090E002C0880F991F2A95C8
:10201000E2F7242F282B88E390E0FC012083B5C051
:1020200088E390E0FC018081482F8B81282F30E0ED
:1020300081E090E002C0880F991F2A95E2F7809511
:10204000242F282388E390E0FC0120839EC08C810C
:102050008130A9F580E590E0FC01208180E590E0E9
:102060002B7FFC01208384E390E0FC018081482FDA
:102070008B81282F30E081E090E002C0880F991F0B
:102080002A95E2F78095242F282384E390E0FC0131
:10209000208385E390E0FC018081482F8B81282FED
:1020A00030E081E090E002C0880F991F2A95E2F7A6
:1020B000242F282B85E390E0FC01208366C085E374
:1020C00090E0FC018081482F8B81282F30E081E057
:1020D00090E002C0880F991F2A95E2F78095242F7F
:1020E000282385E390E0FC0120834FC08C81813060
:1020F000A9F580E590E0FC01208180E590E02B7F50
:10210000FC01208381E390E0FC018081482F8B81DA
:10211000282F30E081E090E002C0880F991F2A95B7
:10212000E2F78095242F282381E390E0FC012083AF
:1021300082E390E0FC018081482F8B81282F30E0E2
:1021400081E090E002C0880F991F2A95E2F7242FC2
:10215000282B82E390E0FC01208316C082E390E00C
:10216000FC018081482F8B81282F30E081E090E0B6
:1021700002C0880F991F2A95E2F78095242F282303
:1021800082E390E0FC012083000001C01982898174
:102190000F900F900F900F90DF91CF910895CF93F4
:1021A000DF9300D01F92CDB7DEB78A836B8381E0C7
:1021B00089838A81843068F58A81882F90E0813014
:1021C000910591F0823091051CF4892B39F01EC0E5
:1021D0008230910579F0039799F018C08AE390E076
:1021E0002B81FC01208316C087E390E02B81FC014A
:1021F000208310C084E390E02B81FC0120830AC07F
:1022000081E390E02B81FC01208304C0198200004F
:1022100001C0198289810F900F900F90DF91CF91AB
:102220000895CF93DF9300D01F92CDB7DEB78A8396
:102230006B8381E089838A81843068F58A81882F65
:1022400090E08130910591F0823091051CF4892B4A
:1022500039F01EC08230910579F0039799F018C0CB
:102260008BE390E02B81FC01208316C088E390E093
:102270002B81FC01208310C085E390E02B81FC01C1
:1022800020830AC082E390E02B81FC01208304C0FC
:102290001982000001C0198289810F900F900F9060
:1022A000DF91CF910895CF93DF9300D000D0CDB7C9
:1022B000DEB78A837C836B8381E089838A81843063
:1022C000D0F58A81882F90E081309105A9F0823085
:1022D00091051CF4892B39F02AC082309105A9F0B0
:1022E0000397E1F024C089E390E0FC0120818B8119
:1022F0009C81FC0120831DC086E390E0FC012081CD
:102300008B819C81FC01208314C083E390E0FC015D
:1023100020818B819C81FC0120830BC080E390E0B5
:10232000FC0120818B819C81FC01208302C01982E9
:102330000000898102C0198289810F900F900F904F
:102340000F90DF91CF910895CF93DF9300D0CDB759
:10235000DEB78A8381E089838A818430D8F58A81D7
:10236000882F90E081309105B1F0823091051CF406
:10237000892B39F030C082309105B9F00397F9F01C
:102380002AC08BE390E0FC0120818BE390E0209554
:10239000FC01208320C088E390E0FC01208188E3D9
:1023A00090E02095FC01208316C085E390E0FC01BD
:1023B000208185E390E02095FC0120830CC082E31E
:1023C00090E0FC01208182E390E02095FC012083D5
:1023D000000001C0198289810F900F90DF91CF9189
:1023E0000895CF93DF9300D01F92CDB7DEB78A83D5
:1023F0006B8381E089838A81843008F065C08B819A
:102400008F708B838A81882F90E08130910501F154
:10241000823091051CF4892B39F057C08230910528
:1024200059F10397E9F151C08BE390E0FC01208161
:102430008BE390E0207FFC0120838BE390E0FC01A4
:1024400030818BE390E02B81232BFC0120833DC066
:1024500088E390E0FC01208188E390E0207FFC018C
:10246000208388E390E0FC01308188E390E02B81B9
:10247000232BFC01208329C085E390E0FC0120810F
:1024800085E390E0207FFC01208385E390E0FC0160
:10249000308185E390E02B81232BFC01208315C044
:1024A00082E390E0FC01208182E390E0207FFC0148
:1024B000208382E390E0FC01308182E390E02B8175
:1024C000232BFC01208301C0198289810F900F907A
:1024D0000F90DF91CF910895CF93DF9300D01F929B
:1024E000CDB7DEB78A836B8381E089838A818430AC
:1024F00008F066C08B818295807F8B838A81882FCC
:1025000090E08130910501F1823091051CF4892B16
:1025100039F057C08230910559F10397E9F151C064
:102520008BE390E0FC0120818BE390E02F70FC01B5
:1025300020838BE390E0FC0130818BE390E02B81E2
:10254000232BFC0120833DC088E390E0FC01208127
:1025500088E390E02F70FC01208388E390E0FC0189
:10256000308188E390E02B81232BFC01208329C05C
:1025700085E390E0FC01208185E390E02F70FC0171
:10258000208385E390E0FC01308185E390E02B819E
:10259000232BFC01208315C082E390E0FC01208105
:1025A00082E390E02F70FC01208382E390E0FC0145
:1025B000308182E390E02B81232BFC01208301C03A
:1025C000198289810F900F900F90DF91CF9108951C
:1025D000CF93DF9300D01F92CDB7DEB78A836B8392
:1025E00081E089838A81843008F065C08B818F7097
:1025F0008B838A81882F90E08130910501F18230B0
:1026000091051CF4892B39F057C08230910559F19E
:102610000397E9F151C08AE390E0FC0120818AE34D
:1026200090E0207FFC0120838AE390E0FC01308170
:102630008AE390E02B81232BFC0120833DC087E3BC
:1026400090E0FC01208187E390E0207FFC01208363
:1026500087E390E0FC01308187E390E02B81232B1E
:10266000FC01208329C084E390E0FC01208184E305
:1026700090E0207FFC01208384E390E0FC01308126
:1026800084E390E02B81232BFC01208315C081E3A0
:1026900090E0FC01208181E390E0207FFC01208319
:1026A00081E390E0FC01308181E390E02B81232BDA
:1026B000FC01208301C0198289810F900F900F9037
:1026C000DF91CF910895CF93DF9300D01F92CDB7C4
:1026D000DEB78A836B8381E089838A81843008F046
:1026E00066C08B818295807F8B838A81882F90E062
:1026F0008130910501F1823091051CF4892B39F06C
:1027000057C08230910559F10397E9F151C08AE32E
:1027100090E0FC0120818AE390E02F70FC0120838F
:102720008AE390E0FC0130818AE390E02B81232B47
:10273000FC0120833DC087E390E0FC01208187E31A
:1027400090E02F70FC01208387E390E0FC01308152
:1027500087E390E02B81232BFC01208329C084E3B5
:1027600090E0FC01208184E390E02F70FC01208345
:1027700084E390E0FC01308184E390E02B81232B03
:10278000FC01208315C081E390E0FC01208181E3FE
:1027900090E02F70FC01208381E390E0FC01308108
:1027A00081E390E02B81232BFC01208301C019825F
:1027B00089810F900F900F90DF91CF910895CF9363
:1027C000DF9300D01F92CDB7DEB79A8389836B83E6
:1027D0008EE390E029813A81FC01318320838DE3EF
:1027E00090E02B81FC0120838CE390E0FC012081B0
:1027F0008CE390E02460FC0120838CE390E0FC01FA
:1028000020818CE390E02260FC01208300008CE3B7
:1028100090E0FC018081882F90E0959587958170EC
:1028200099270197A1F300000F900F900F90DF916F
:10283000CF910895CF93DF9300D0CDB7DEB79A83C1
:1028400089838EE390E02981FC01208389819A812C
:10285000292F33278FE390E0FC0120838CE390E065
:10286000FC0120818CE390E02160FC0120838DE35A
:1028700090E0FC0180810F900F90DF91CF9108953F
:10288000CF93DF93CDB7DEB785E590E0FC012081E3
:1028900085E590E02E7FFC01208385E590E0FC013A
:1028A000208185E590E02260FC0120830000DF911B
:1028B000CF910895CF93DF9300D0CDB7DEB7898352
:1028C0006A838A81863008F4E2C08A81883008F001
:1028D000DEC08A81882F90E026E030E0A901481B05
:1028E000590BCA01982F80E0891B880F8A83898140
:1028F000882F90E08130910509F49BC082309105CA
:1029000024F4892B09F466C0C2C08230910519F005
:10291000039789F1BCC085E590E0FC018081482FD8
:102920008A81282F30E081E090E002C0880F991F53
:102930002A95E2F78095242F282385E590E0FC0175
:10294000208385E590E0FC018081482F8A81882FD3
:1029500090E09C012F5F3F4F81E090E002C0880F24
:10296000991F2A95E2F78095242F282385E590E08A
:10297000FC0120838CC085E590E0FC018081482F1C
:102980008A81282F30E081E090E002C0880F991FF3
:102990002A95E2F7242F282B85E590E0FC0120837F
:1029A00085E590E0FC018081482F8A81882F90E0A6
:1029B0009C012F5F3F4F81E090E002C0880F991F7C
:1029C0002A95E2F78095242F282385E590E0FC01E5
:1029D00020835DC085E590E0FC018081482F8A81DD
:1029E000282F30E081E090E002C0880F991F2A95DF
:1029F000E2F78095242F282385E590E0FC012083D1
:102A000085E590E0FC018081482F8A81882F90E045
:102A10009C012F5F3F4F81E090E002C0880F991F1B
:102A20002A95E2F7242F282B85E590E0FC012083EE
:102A30002EC085E590E0FC018081482F8A81282FF7
:102A400030E081E090E002C0880F991F2A95E2F7FC
:102A5000242F282B85E590E0FC01208385E590E07C
:102A6000FC018081482F8A81882F90E09C012F5F94
:102A70003F4F81E090E002C0880F991F2A95E2F74E
:102A8000242F282B85E590E0FC01208300008A811B
:102A90008530E1F48981882F90E0009719F0019743
:102AA00059F014C084E590E0FC01208184E590E0B9
:102AB0002F7BFC0120830AC084E590E0FC0120818B
:102AC00084E590E02064FC012083000000000F906A
:102AD0000F90DF91CF910895CF93DF9300D0CDB7C2
:102AE000DEB78A8319828A81863031F08A81873005
:102AF00019F08A818530B9F48BE590E0FC01808182
:102B0000482F8A81282F30E081E090E002C0880FB2
:102B1000991F2A95E2F78095242F28238BE590E0D2
:102B2000FC01208302C081E0898389810F900F908E
:102B3000DF91CF910895CF93DF9300D0CDB7DEB76B
:102B40008A8319828A81863031F08A81873019F030
:102B50008A818530B1F48BE590E0FC018081482FBB
:102B60008A81282F30E081E090E002C0880F991F11
:102B70002A95E2F7242F282B8BE590E0FC01208397
:102B800002C081E0898389810F900F90DF91CF91FE
:102B90000895CF93DF931F92CDB7DEB789838AE57F
:102BA00090E0FC018081482F8981282F30E081E06E
:102BB00090E002C0880F991F2A95E2F7242F282B56
:102BC0008AE590E0FC01208300000F90DF91CF9117
:102BD0000895CF93DF931F92CDB7DEB789838AE53F
:102BE00090E0FC018081282F30E08981482F50E05F
:102BF00081E090E002C0880F991F4A95E2F7822396
:102C000093232981222F30E002C0959587952A953C
:102C1000E2F70F90DF91CF910895CF93DF9300D02B
:102C200000D0CDB7DEB79B838A836C8319828A81FB
:102C30009B81892B09F18C81863039F48A819B81B3
:102C4000909373008093720019C08C81873039F49F
:102C50008A819B8190937500809374000FC08C8152
:102C6000853039F48A819B81909377008093760038
:102C700005C081E0898302C081E0898389810F904A
:102C80000F900F900F90DF91CF9108951F920F92A8
:102C90000FB60F9211242F933F934F935F936F932F
:102CA0007F938F939F93AF93BF93EF93FF93CF93B4
:102CB000DF93CDB7DEB78091720090917300892BBE
:102CC00049F08091720090917300FC01099586E0B3
:102CD0000E94C9150000DF91CF91FF91EF91BF9144
:102CE000AF919F918F917F916F915F914F913F91A4
:102CF0002F910F900FBE0F901F9018951F920F925B
:102D00000FB60F9211242F933F934F935F936F93BE
:102D10007F938F939F93AF93BF93EF93FF93CF9343
:102D2000DF93CDB7DEB78091740090917500892B49
:102D300049F08091740090917500FC01099587E03D
:102D40000E94C9150000DF91CF91FF91EF91BF91D3
:102D5000AF919F918F917F916F915F914F913F9133
:102D60002F910F900FBE0F901F9018951F920F92EA
:102D70000FB60F9211242F933F934F935F936F934E
:102D80007F938F939F93AF93BF93EF93FF93CF93D3
:102D9000DF93CDB7DEB78091760090917700892BD5
:102DA00049F08091760090917700FC01099585E0CB
:102DB0000E94C9150000DF91CF91FF91EF91BF9163
:102DC000AF919F918F917F916F915F914F913F91C3
:102DD0002F910F900FBE0F901F901895CF93DF93F8
:102DE000CDB7DEB78FE590E0FC0120818FE590E064
:102DF0002068FC0120830000DF91CF910895CF93DC
:102E0000DF93CDB7DEB78FE590E0FC0120818FE541
:102E100090E02F77FC0120830000DF91CF9108958F
:102E2000CF93DF93CDB7DEB70E9449000E94EE1624
:102E30000E9431170E94080486E00E949B1566E0FC
:102E400080E00E945A1466E08CEC9AE10E940D1614
:102E500041E062E083E00E94610F0000DF91CF91CA
:102E60000895CF93DF9300D01F92CDB7DEB71982BC
:102E70008BE290E0FC0120818BE290E02D7FFC0151
:102E8000208383E390E09B838A8380E490E0FC01CD
:102E9000108289E290E02A81FC0120838BE290E09D
:102EA000FC0120818BE290E02E7FFC012083898150
:102EB0008F7B898389818F7E898389818F7D8983B7
:102EC0008981877F89838981826089838981846000
:102ED00089838AE290E0FC0120818AE290E02B7FE6
:102EE000FC01208389818068898380E490E02981C6
:102EF000FC0120838AE290E0FC0120818AE290E0DC
:102F00002F77FC0120838AE290E0FC0120818AE295
:102F100090E02F7BFC0120838AE290E0FC0120817D
:102F20008AE290E02F7DFC0120838AE290E0FC01A0
:102F300020818AE290E02061FC0120838AE290E017
:102F4000FC0120818AE290E02860FC0120830000DF
:102F50000F900F900F90DF91CF910895CF93DF9353
:102F600000D000D000D0CDB7DEB78E8319821A8290
:102F70001B821C821D82809180008823B1F581E034
:102F8000809380000BC08A819B81AC81BD810196BA
:102F9000A11DB11D8A839B83AC83BD838BE290E02E
:102FA000FC018081882F90E080729927892B49F459
:102FB0008A819B81AC81BD8180319742A105B10599
:102FC00011F78A819B81AC81BD8180319742A10537
:102FD000B10519F484E0898305C08CE290E02E816C
:102FE000FC0120831092800002C083E089838981E4
:102FF00026960FB6F894DEBF0FBECDBFDF91CF91FE
:103000000895CF93DF9300D000D000D01F92CDB7AA
:10301000DEB79F838E8319821A821B821C821D82D7
:103020008E819F81892BE1F1809180008823A9F511
:1030300081E0809380000BC08A819B81AC81BD813F
:103040000196A11DB11D8A839B83AC83BD838BE256
:1030500090E0FC01808188234CF08A819B81AC81C7
:10306000BD8180319742A105B10531F78A819B81ED
:10307000AC81BD8180319742A105B10519F484E08E
:10308000898308C08CE290E0FC0120818E819F81C1
:10309000FC0120831092800005C083E0898302C078
:1030A00082E08983898127960FB6F894DEBF0FBE30
:1030B000CDBFDF91CF910895CF93DF93CDB7DEB72A
:1030C00065970FB6F894DEBF0FBECDBF9D8B8C8B7E
:1030D00019821A821B821C821D828C899D89892BF0
:1030E00009F498C08BC08A819B812C893D89820F0D
:1030F000931FFC0180810E94AE17898380E090E0DD
:10310000A8ECB2E48E839F83A887B98720E030E0E3
:103110004AEF54E46E817F81888599850E94CF1C97
:10312000DC01CB018A879B87AC87BD8720E030E03C
:1031300040E85FE36A857B858C859D850E94911BB5
:1031400088232CF481E090E09F878E873FC020E0A9
:103150003FEF4FE757E46A857B858C859D850E940C
:10316000CA1C18164CF520E030E040E251E46E81B4
:103170007F81888599850E94CF1CDC01CB01BC0131
:10318000CD010E94D91BDC01CB019F878E870FC028
:1031900088EC90E0998B888B888999890197F1F761
:1031A000998B888B8E859F8501979F878E878E85CB
:1031B0009F85892B69F714C06A857B858C859D85E1
:1031C0000E94D91BDC01CB019F878E878E859F854E
:1031D0009B8B8A8B8A899B890197F1F79B8B8A8BC2
:1031E0008A819B81AC81BD810196A11DB11D8A831D
:1031F0009B83AC83BD838981882379F48A819B81F9
:103200002C893D89820F931FFC018081882309F05E
:103210006ACF04C082E0898301C00000898165967D
:103220000FB6F894DEBF0FBECDBFDF91CF910895EA
:10323000CF93DF9300D000D01F92CDB7DEB79B8332
:103240008A837D836C831982809180008823B1F505
:103250008A819B81892B79F18C819D81892B59F100
:1032600081E0809380008A819B8190937900809394
:1032700078008C819D8190937F0080937E001092D6
:103280007D00209178003091790080917D00882F19
:1032900090E0280F391F8CE290E0F9012081FC01B9
:1032A00020838AE290E0FC0120818AE290E02064A1
:1032B000FC01208305C082E0898302C083E089830A
:1032C00089810F900F900F900F900F90DF91CF9109
:1032D0000895CF93DF93CDB7DEB72B970FB6F89451
:1032E000DEBF0FBECDBF9F838E83488759876A8715
:1032F0007B8719828E819F81892B51F11A821B82D3
:103300001C821D8217C08A819B812E813F81820F82
:10331000931F0E940118898389818823E1F48A819F
:103320009B81AC81BD810196A11DB11D8A839B83C8
:10333000AC83BD832A813B814C815D8188859985E1
:10334000AA85BB85281739074A075B07E0F204C046
:1033500082E0898301C0000089812B960FB6F89422
:10336000DEBF0FBECDBFDF91CF910895CF93DF9326
:10337000CDB7DEB729970FB6F894DEBF0FBECDBF2D
:103380009B838A834C835D836E837F833987288701
:10339000198280918000882349F58A819B81892B3D
:1033A00011F188859985892BF1F081E08093800067
:1033B0008A819B8190937B0080937A008885998590
:1033C00090937F0080937E008C8180937C0010928C
:1033D0007D008AE290E0FC0120818AE290E0206892
:1033E000FC01208305C082E0898302C083E08983D9
:1033F000898129960FB6F894DEBF0FBECDBFDF914D
:10340000CF9108951F920F920FB60F9211242F9310
:103410003F934F935F936F937F938F939F93AF935C
:10342000BF93EF93FF93CF93DF93CDB7DEB72CE23B
:1034300030E040917A0050917B0080917D00882F90
:1034400090E0840F951FF9012081FC012083809179
:103450007D008F5F80937D0090917D0080917C0046
:103460009817C9F410927D001092800080917E0020
:1034700090917F00892B31F080917E0090917F00A8
:10348000FC0109958AE290E0FC0120818AE290E04B
:103490002F77FC0120830000DF91CF91FF91EF9106
:1034A000BF91AF919F918F917F916F915F914F915C
:1034B0003F912F910F900FBE0F901F9018951F9264
:1034C0000F920FB60F9211242F933F934F935F9358
:1034D0006F937F938F939F93AF93BF93EF93FF93DC
:1034E000CF93DF93CDB7DEB780917D008F5F809360
:1034F0007D00209178003091790080917D00882FA7
:1035000090E0820F931FFC0180818823D1F41092F8
:103510007D001092800080917E0090917F00892B29
:1035200031F080917E0090917F00FC0109958AE244
:1035300090E0FC0120818AE290E02F7BFC01208357
:1035400010C0209178003091790080917D00882F03
:1035500090E0280F391F8CE290E0F9012081FC01F6
:1035600020830000DF91CF91FF91EF91BF91AF9148
:103570009F918F917F916F915F914F913F912F918B
:103580000F900FBE0F901F901895CF93DF93CDB77C
:10359000DEB70E941017FFCFCF93DF93CDB7DEB712
:1035A00081E40E94D0060000DF91CF910895A1E24E
:1035B0001A2EAA1BBB1BFD010DC0AA1FBB1FEE1FAD
:1035C000FF1FA217B307E407F50720F0A21BB30BF8
:1035D000E40BF50B661F771F881F991F1A9469F774
:1035E00060957095809590959B01AC01BD01CF01D0
:1035F0000895052E97FB1EF400940E94101B57FDA2
:1036000007D00E94D71A07FC03D04EF40C94101B6D
:1036100050954095309521953F4F4F4F5F4F0895FE
:1036200090958095709561957F4F8F4F9F4F08952E
:103630000024A7FD00942A173005400550056005B9
:1036400070058005900508955058BB27AA270E9451
:103650003C1B0C94901C0E94821C38F00E94891C18
:1036600020F039F49F3F19F426F40C946F1C0EF4EB
:10367000E095E7FB0C94691CE92F0E94A11C58F30C
:10368000BA17620773078407950720F079F4A6F547
:103690000C94C31C0EF4E0950B2EBA2FA02D0B0139
:1036A000B90190010C01CA01A0011124FF27591B87
:1036B00099F0593F50F4503E68F11A16F040A22F8D
:1036C000232F342F4427585FF3CF469537952795FE
:1036D000A795F0405395C9F77EF41F16BA0B620BFD
:1036E000730B840BBAF09150A1F0FF0FBB1F661F44
:1036F000771F881FC2F70EC0BA0F621F731F841F87
:1037000048F4879577956795B795F7959E3F08F0AC
:10371000B0CF9395880F08F09927EE0F979587956E
:1037200008950E94451C08F481E00895BEE304D08A
:1037300008F490E80895BFE322273327A9010E94E7
:10374000A91C60F19F5748F1B91740F1BFE3B91BBD
:103750009927B8503AF4660F771F881F991FB395C1
:10376000D2F316C0B8504AF0232F342F452F562FCE
:10377000672F782F8827B850BAF7B85F49F0869539
:10378000779567955795479537952795BA95B9F7E2
:1037900016F40E94721C88940895889460E070E08A
:1037A000CB0108950E94D91B6894B1110C94C41CDC
:1037B00008950E94A91C88F09F5798F0B92F992767
:1037C000B751B0F0E1F0660F771F881F991F1AF00C
:1037D000BA95C9F714C0B13091F00E94C31CB1E092
:1037E00008950C94C31C672F782F8827B85F39F091
:1037F000B93FCCF3869577956795B395D9F73EF4A5
:1038000090958095709561957F4F8F4F9F4F08954C
:10381000E89409C097FB3EF490958095709561956A
:103820007F4F8F4F9F4F9923A9F0F92F96E9BB2720
:103830009395F695879577956795B795F111F8CF9C
:10384000FAF4BB0F11F460FF1BC06F5F7F4F8F4F07
:103850009F4F16C0882311F096E911C0772321F0FD
:103860009EE8872F762F05C0662371F096E8862F95
:1038700070E060E02AF09A95660F771F881FDAF7EC
:10388000880F9695879597F90895990F0008550F19
:10389000AA0BE0E8FEEF16161706E807F907C0F0D6
:1038A00012161306E407F50798F0621B730B840BDE
:1038B000950B39F40A2661F0232B242B252B21F4B8
:1038C00008950A2609F4A140A6958FEF811D811D58
:1038D000089597F99F6780E870E060E008959FEF92
:1038E00080EC0895909580957095609550954095E1
:1038F000309521953F4F4F4F5F4F6F4F7F4F8F4F09
:103900009F4F089500240A941616170618060906F4
:10391000089500240A941216130614060506089545
:10392000092E0394000C11F4882352F0BB0F40F4CD
:10393000BF2B11F460FF04C06F5F7F4F8F4F9F4F0D
:10394000089557FD9058440F551F59F05F3F71F08F
:103950004795880F97FB991F61F09F3F79F08795F6
:103960000895121613061406551FF2CF4695F1DF7F
:1039700008C0161617061806991FF1CF869571050F
:10398000610508940895E894BB2766277727CB0143
:1039900097F908950E94451C08F48FEF08950E943E
:1039A000E21C0C94901C0E94821C38F00E94891C1E
:1039B00020F0952311F00C94691C0C946F1C1124B9
:1039C0000C94C41C0E94A11C70F3959FC1F3950F29
:1039D00050E0551F629FF001729FBB27F00DB11D93
:1039E000639FAA27F00DB11DAA1F649F6627B00D23
:1039F000A11D661F829F2227B00DA11D621F739F0C
:103A0000B00DA11D621F839FA00D611D221F749F19
:103A10003327A00D611D231F849F600D211D822F60
:103A2000762F6A2F11249F5750409AF0F1F0882387
:103A30004AF0EE0FFF1FBB1F661F771F881F9150B4
:103A40005040A9F79E3F510580F00C94691C0C94DE
:103A5000C41C5F3FE4F3983ED4F386957795679551
:103A6000B795F795E7959F5FC1F7FE2B880F911DDE
:0C3A70009695879597F90895F894FFCF7C
:083A7C0000010101091F08000F
:00000001FF
