:100000000C942A000C9481060C94AD060C94D9062D
:100010000C943B0F0C94120F0C94E90E0C94C00E30
:100020000C94970E0C946E0E0C94450E0C941C0EB2
:100030000C9447000C9443100C9447000C948210CD
:100040000C943B010C9447000C9447000C9447001F
:100050000C94470011241FBECFE5D8E0DEBFCDBF12
:1000600011E0A0E6B0E0E0EBF6E202C005900D92F0
:10007000AC3FB107D9F722E0ACEFB1E001C01D926F
:10008000A635B207E1F70E947C080C9456130C9435
:1000900000003E9A3F983D9886B1887F86B986B128
:1000A000876086B93598379A33980895379A0895B6
:1000B00037980895339A089533980895823010F050
:1000C000833061F497B19F7397B927B130E4839F70
:1000D000C0011124822B87B980E0089581E0089542
:1000E000883040F496B1987F96B996B1892B86B93D
:1000F00080E0089581E00895811102C03D9808953F
:10010000813019F43D9A80E0089581E008958830A7
:1001100019F4359880E00895883038F4359A80B71E
:100120008F7180BF80B780BFF5CF81E00895FB015C
:1001300092E0309781F19091FC0191112EC021E065
:100140002093FC01803230F427B1207E27B927B1FB
:10015000822B87B9369A40E050E0BA0134990DC03D
:10016000403583EC58076105710511F491E011C029
:100170004F5F5F4F6F4F7F4FF1CF4035534C61055D
:100180007105A1F3349A84B125B1322F282F318320
:1001900020831092FC01892F089593E0FCCF611514
:1001A000710501F141155105E9F09091FC019111A2
:1001B0001BC021E02093FC01109201027093050204
:1001C000609304025093030240930202803230F4A1
:1001D00027B1207E27B927B1822B87B9369A339A67
:1001E000892F089592E0FCCF93E0FACFFC01892B90
:1001F000F1F1A081B1811097D1F1258136812115CE
:100200003105A9F1428153814115510581F1809158
:10021000FC0181112EC091E09093FC0190930102AA
:100220005093050240930402B0930002A093FF0193
:1002300094819093FE013093030220930202109266
:10024000FD019C91903280F497B1907E97B997B15F
:10025000E091FD012091FF0130910002E20FF32FA8
:10026000F11D2081922B97B9369A339A089582E036
:10027000089583E008951F920F920FB60F921124F4
:100280002F933F934F935F936F937F938F939F939E
:10029000AF93BF93EF93FF9380910102811124C02C
:1002A00094B185B1E0910402F09105028927982765
:1002B0008927918380831092FC01E0910202F091E2
:1002C000030209953398FF91EF91BF91AF919F91F0
:1002D0008F917F916F915F914F913F912F910F90EF
:1002E0000FBE0F901F901895813069F794B185B1BA
:1002F000E091FD012E2F30E0220F331FA091040268
:10030000B0910502A20FB31F8927982789278D93E3
:100310009C93EF5FE093FD018091FE01E81759F295
:100320008091FF0190910002E80FF92FF11D80816B
:10033000803280F487B1807E87B987B1E091FD017A
:100340002091FF0130910002E20FF32FF11D908107
:10035000892B87B9369AB7CF41E065E082E00E94E9
:10036000CE038FEC97E00197F1F700C0000040E06A
:1003700065E082E00E94CE038FEC97E00197F1F7F1
:1003800000C000000895CF93C82F41E067E082E0ED
:100390000E94CE0340E066E082E00E94CE036C2F14
:1003A00062956F7082E00E9406050E94AC016C2F7E
:1003B00082E00E940605CF910C94AC01CF93C82F28
:1003C00040E067E082E00E94CE0340E066E082E029
:1003D0000E94CE036C2F62956F7082E00E9406052A
:1003E0000E94AC016C2F82E00E940605CF910C9414
:1003F000AC0181E00E94DE018FE19EE40197F1F7FC
:1004000000C0000008952FE788E391E0215080406C
:100410009040E1F700C0000041E060E082E00E940F
:100420008E0341E061E082E00E948E0341E062E0E1
:1004300082E00E948E0341E063E082E00E948E032E
:1004400041E067E082E00E948E0341E066E082E0E6
:100450000E948E0341E065E082E00E948E0382E00C
:100460000E94DE018FE19EE40197F1F700C00000D9
:1004700088E20E94DE018FEC97E00197F1F700C05F
:1004800000008CE00E94DE018FEC97E00197F1F70D
:1004900000C000000E94F90186E00E94DE018FEC9E
:1004A00097E00197F1F700C0000008950F931F93A4
:1004B000CF938C01C0E0F801EC0FF11D8081811118
:1004C00004C0CF911F910F9108950E94C301CF5F87
:1004D000F2CF4F925F926F927F928F929F92AF92E4
:1004E000BF92CF92DF92EF92FF920F931F93CF9321
:1004F000DF936B017C01C114D104E104F10499F490
:1005000080E3DF91CF911F910F91FF90EF90DF90EB
:10051000CF90BF90AF909F908F907F906F905F90A3
:100520004F900C94C301F7FE0BC08DE20E94C301F3
:10053000F094E094D094C094C11CD11CE11CF11C37
:1005400061E070E080E090E03AE0832E912CA12CF5
:10055000B12CAAE0B0E09B01AC010E941D112B015F
:100560003C01C701B601A50194010E94F710640D7A
:10057000751D861D971D69017A01C114D104E1041E
:10058000F10439F72AE0C22ED12CE12CF12C613094
:1005900071058105910589F4DF91CF911F910F912C
:1005A000FF90EF90DF90CF90BF90AF909F908F9093
:1005B0007F906F905F904F900895A70196010E94E1
:1005C000D5108901D42FC52F80E3860F0E94C30167
:1005D000B8018D2F9C2FDBCFCF92DF92EF92FF924D
:1005E0006B017C010E94F1110E94690220E030E061
:1005F000A901C701B6010E94B01187FF04C0F7FA34
:10060000F094F7F8F094C701B6010E94F1110E942E
:1006100029129B01AC01C701B6010E94431120E0E1
:1006200030E44CE156E40E94E9126B017C010E9427
:10063000B511A0E00E94281169F08EE20E94C3016A
:10064000C701B6010E94F111FF90EF90DF90CF90AB
:100650000C946902FF90EF90DF90CF900895982F4F
:10066000862F2FEF290F2430D0F42FEF260F2431BF
:10067000B0F4913051F481580E94DE018FEC97E084
:100680000197F1F700C000000895923011F48154F1
:10069000F3CF933011F48D56EFCF8D52EDCF80E82C
:1006A000EBCFEF92FF920F931F93CF93DF93182F0F
:1006B000062F80E40E94DE01C0E6D0E088E6E82E46
:1006C00080E0F82E89910E94C301EC16FD06D1F757
:1006D000602F812F0E942F03C0E08C2F0E94C30146
:1006E000CF5FC830D1F7DF91CF911F910F91FF906D
:1006F000EF9008958CE10E94DE018FEC97E0019766
:10070000F1F700C00000089588E10E94DE018FEC3F
:1007100097E00197F1F700C0000008958430E0F5FC
:100720006830D0F54130E9F421E030E001C0220F1B
:100730006A95EAF7823069F0833079F0813021F0F0
:100740008AB3282B2ABB03C087B3282B27BB81E0A1
:10075000089584B3282B24BBFACF81B3282B21BB67
:10076000F6CF411119C021E030E001C0220F6A9597
:10077000EAF72095823051F0833059F0813019F03A
:100780008AB32823DFCF87B32823E0CF84B328237D
:10079000E2CF81B32823E3CF80E008958430E0F5F1
:1007A0006830D0F54130E9F421E030E001C0220F9B
:1007B0006A95EAF7823069F0833079F0813021F070
:1007C0008BB3282B2BBB03C088B3282B28BB81E01D
:1007D000089585B3282B25BBFACF82B3282B22BBE3
:1007E000F6CF411119C021E030E001C0220F6A9517
:1007F000EAF72095823051F0833059F0813019F0BA
:100800008BB32823DFCF88B32823E0CF85B32823F9
:10081000E2CF82B32823E3CF80E00895FA01843049
:1008200018F5683008F521E030E0062E02C0220FEE
:10083000331F0A94E2F7823099F0833099F08130C7
:1008400069F099B3892F90E08223932302C0959594
:1008500087956A95E2F7808381E0089596B3F2CF99
:1008600093B3F0CF90B3EECF80E008958430F8F4E6
:100870006830E8F421E030E001C0220F6A95EAF721
:10088000823069F0833079F0813029F08BB32827EA
:100890002BBB81E0089588B3282728BBFACF85B306
:1008A000282725BBF6CF82B3282722BBF2CF80E0D2
:1008B0000895843008F052C0683008F04FC021E03D
:1008C00030E001C0220F6A95EAF7922F90958230AE
:1008D00029F1833099F1813089F0413059F480B7A2
:1008E0008B7F80BF8AB398239ABB8BB3282B2BBBFB
:1008F00081E008958BB398239BBBFACF413051F42C
:1009000080B78B7F80BF87B3982397BB88B3282B92
:1009100028BBEECF88B3982398BBEACF413051F47F
:1009200080B78B7F80BF84B3982394BB85B3282B7B
:1009300025BBDECF85B3982395BBDACF413051F488
:1009400080B78B7F80BF81B3982391BB82B3282B64
:1009500022BBCECF82B3982392BBCACF80E008954A
:10096000843078F4823049F0833049F0813019F0D6
:100970006ABB81E0089567BBFCCF64BBFACF61BB63
:10098000F8CF80E00895843078F4823049F08330E5
:1009900049F0813019F06BBB81E0089568BBFCCF52
:1009A00065BBFACF62BBF8CF80E00895FB018430CD
:1009B00080F4823051F0833051F0813021F089B3DE
:1009C000808381E0089586B3FBCF83B3F9CF80B3F2
:1009D000F7CF80E008958430B8F4823069F0833036
:1009E00079F0813029F08BB380958BBB81E008953D
:1009F00088B3809588BBFACF85B3809585BBF6CF49
:100A000082B3809582BBF2CF80E00895843020F5D8
:100A10006F70823099F08330C1F0813041F08BB338
:100A2000807F8BBB8BB3682B6BBB81E0089588B351
:100A3000807F88BB88B3682B68BBF7CF85B3807F86
:100A400085BB85B3682B65BBF0CF82B3807F82BB4B
:100A500082B3682B62BBE9CF80E00895843028F52B
:100A60006295607F823099F08330C1F0813041F02F
:100A70008BB38F708BBB8BB3682B6BBB81E00895FE
:100A800088B38F7088BB88B3682B68BBF7CF85B3FA
:100A90008F7085BB85B3682B65BBF0CF82B38F7039
:100AA00082BB82B3682B62BBE9CF80E008958430BB
:100AB00020F56F70823099F08330C1F0813041F0C1
:100AC0008AB3807F8ABB8AB3682B6ABB81E00895B2
:100AD00087B3807F87BB87B3682B67BBF7CF84B3AF
:100AE000807F84BB84B3682B64BBF0CF81B3807FED
:100AF00081BB81B3682B61BBE9CF80E0089584306E
:100B000028F56295607F823099F08330C1F08130A2
:100B100041F08AB38F708ABB8AB3682B6ABB81E0CD
:100B2000089587B38F7087BB87B3682B67BBF7CFF8
:100B300084B38F7084BB84B3682B64BBF0CF81B364
:100B40008F7081BB81B3682B61BBE9CF80E00895D2
:100B50009FBB8EBB6DBBE29AE19AE199FECF0895EF
:100B60008EBB9FBBE09A8DB3089585B78E7F85BFFE
:100B700085B7826085BF08959AEF960F923008F08E
:100B800053C0692F660F8130E1F130F1823019F0E6
:100B90008330B9F0089545B781E090E09C01062EBE
:100BA00001C0220F0A94EAF72095242325BF25B718
:100BB0006F5F01C0880F6A95EAF78095822385BF31
:100BC000089525B781E090E0AC01062E01C0440FE6
:100BD0000A94EAF7242BEACF45B721E030E0C901B7
:100BE000062E01C0880F0A94EAF78095842385BFFA
:100BF00085B76F5F01C0220F6A95EAF7282B25BFE2
:100C0000089525B781E090E0AC01062E01C0440FA5
:100C10000A94EAF7242B25BF25B76F5F01C0880F20
:100C20006A95EAF7822BCBCF653041F4882319F01F
:100C3000813029F0089584B78F7B84BF089584B7ED
:100C40008064FBCF9BEF980F933078F44BB721E093
:100C500030E0B90102C0660F771F8A95E2F7CB0139
:100C6000809584238BBF80E0089581E008959BEFF9
:100C7000980F933060F49BB721E030E001C0220F61
:100C80008A95EAF7892F822B8BBF80E0089581E057
:100C900008959AB721E030E001C0220F8A95EAF763
:100CA000922B9ABF08954AB721E030E0082E02C087
:100CB000220F331F0A94E2F750E024233523A901C1
:100CC00002C0559547958A95E2F7CA0108950097A5
:100CD000B1F0663031F4909307028093060280E011
:100CE0000895673029F49093090280930802F7CFA2
:100CF000653029F490930B0280930A02F0CF81E0D3
:100D000008951F920F920FB60F9211242F933F93C5
:100D10004F935F936F937F938F939F93AF93BF9303
:100D2000EF93FF93E0910602F0910702309721F0D4
:100D3000099586E00E944906FF91EF91BF91AF911E
:100D40009F918F917F916F915F914F913F912F91E3
:100D50000F900FBE0F901F9018951F920F920FB615
:100D60000F9211242F933F934F935F936F937F9331
:100D70008F939F93AF93BF93EF93FF93E0910802FC
:100D8000F0910902309721F0099587E00E94490609
:100D9000FF91EF91BF91AF919F918F917F916F9153
:100DA0005F914F913F912F910F900FBE0F901F9029
:100DB00018951F920F920FB60F9211242F933F9305
:100DC0004F935F936F937F938F939F93AF93BF9353
:100DD000EF93FF93E0910A02F0910B02309721F01C
:100DE000099585E00E944906FF91EF91BF91AF916F
:100DF0009F918F917F916F915F914F913F912F9133
:100E00000F900FBE0F901F9018958FB780688FBFFF
:100E100008958FB78F778FBF08958091680082FD06
:100E20008AC08460809368000E94F90183E790E0A3
:100E30000E94560261E082E00E942F038DE790E05D
:100E40000E94560260E172E08CE690E00E94260962
:100E50006091100270E090E080E00E94690287EAF1
:100E600090E00E94560280E890E00E9456026FE0F7
:100E700072E089E690E00E94E30860910F0270E062
:100E800090E080E00E94690283E890E00E945602B0
:100E90004CE052E063E083E00E940E0480910C027B
:100EA00069E0813091F183E00E942F0385E890E0B2
:100EB0000E94560288E890E00E94560280910F023C
:100EC00041E0823318F0823329F040E060E081E0B5
:100ED0000E94CE034DE052E062E081E00E940E04E9
:100EE00061E083E00E942F038CE890E00E945602AC
:100EF00080910D02811115C041E061E081E00E9406
:100F0000CE0388E890E00C94560283E00E942F0301
:100F100085E890E00E9456028AE890E00E9456021E
:100F2000D9CF813009F072C040E061E00E94CE0369
:100F30008AE890E0E8CF63E082E00E942F0360E15E
:100F400072E08CE690E00E9426096091100270E049
:100F500090E080E00E9469026BE082E00E942F0333
:100F60006FE072E089E690E00E94E30860910F0272
:100F700070E090E080E00E94690283E890E00E94C7
:100F800056024CE052E063E083E00E940E04809140
:100F90000C026BE0813039F183E00E942F0388E876
:100FA00090E00E94560280910F0241E0823318F0D7
:100FB000823329F040E060E081E00E94CE034DE002
:100FC00052E062E081E00E940E0480910D028111E6
:100FD00012C041E061E081E00E94CE0363E083E063
:100FE0000E942F038ECF83E00E942F038AE890E0B7
:100FF0000E945602E4CF813049F440E061E00E9453
:10100000CE0363E083E00E942F0392CF08958DE02A
:101010000E94720F8FE890E00E94C10F8DE00E9445
:10102000720F8EE990E00E94C10F8CEA90E00E945E
:10103000C10F8DE00E94720F0E940D078CE292E0BA
:101040000E94970F80936F0080916F0081111FC0E5
:1010500080912C02813379F08233B9F0883081F4A9
:101060008DE00E94720F84EB90E00E94C10F8DE032
:101070000E94720F05C080E00E94EB0C10920E02DD
:1010800080912C028830C1F608958AE5F5CF8091D1
:101090006F008430A9F780910E028F5F80930E025B
:1010A000EFCF8DE00E94720F84EB90E00E94C10FA1
:1010B0008DE00E94720F0E940D078CE292E00E9468
:1010C000970F80936F0080916F0081110BC080910A
:1010D0002C02813311F40E94070880912C02883081
:1010E00051F7089580916F008430B9F780910E0216
:1010F0008F5F80930E02F1CF0E940B0DC4E1D0E010
:101100008091680080FFFFCF10920E028260809372
:1011100068008CEB90E00E94C10F8CE292E00E948C
:10112000970F80936F0080916F008111F6CF8091AF
:101130002C028D3091F70E94950C0E94F90167E016
:1011400082E00E942F0387ED90E00E94560280917A
:101150001202BE01681B710977FF02C06F5F7F4FEB
:10116000759567956F5F83E00E942F0382E492E09C
:101170000E94560287ED90E00E94C10F82E492E047
:101180000E94C10F2FEF89E698E1215080409040E6
:10119000E1F700C00000809168008E7F80936800B6
:1011A0000E940D070E945108ABCF80EE90E00E9494
:1011B000C10F8DE00E94720F0C94070840E060E0C0
:1011C00081E00C94CE03EF92FF920F931F93CF9385
:1011D000DF9300D0CDB7DEB77C018B01BE016F5F1E
:1011E0007F4FFC0180810E949700F701828181116D
:1011F00020C069817A8190E080E00E94271220E07F
:1012000030E040E85AE30E94E91220E030E048EC88
:1012100052E40E94E9120E94F811F801608380E014
:101220000F900F90DF91CF911F910F91FF90EF9052
:1012300008958130A1F769817A8190E080E00E9471
:10124000271220E030E040E85BE3DDCFAF92BF92B1
:10125000CF92DF92EF92FF920F931F93CF93DF9382
:1012600000D0CDB7DEB76C018B01FC01218188EE87
:1012700093E0289F5001299FB00C1124BE016F5F9D
:101280007F4F80810E949700F6018281811122C0E8
:1012900029813A81D5010E9416113AE096958795E9
:1012A000779567953A95D1F77B01C7016AE070E0C1
:1012B0000E94C110F801608380E00F900F90DF91D1
:1012C000CF911F910F91FF90EF90DF90CF90BF9043
:1012D000AF900895813049F729813A81D5010E9464
:1012E0001611672F782F892F9927DECFCF92DF92A3
:1012F000EF92FF920F931F93CF93DF9300D0CDB760
:10130000DEB77C018B01FC01218188EE93E0289FF0
:101310006001299FD00C1124BE016F5F7F4F808137
:101320000E949700F701828181111BC029813A81B7
:10133000D6010E9416113AE09695879577956795A4
:101340003A95D1F7F8017183608380E00F900F9098
:10135000DF91CF911F910F91FF90EF90DF90CF9091
:101360000895813091F729813A81D6010E941611A2
:10137000672F782F892F9927E5CF0F931F93CF934E
:1013800084EF90E00E94C10F8DE00E94720F81E017
:1013900091E00E94C10F82E30E94720F80E30E94DD
:1013A000720F8DE00E94720F109212028091120251
:1013B0008823B9F081E191E00E94C10F87E30E9488
:1013C000720F8DE291E00E94C10F8DE00E94720FBA
:1013D00083E391E00E94C10F8DE00E94720F109292
:1013E00012028CE292E00E94970F80936F0080912E
:1013F0006F0081111EC08091120281111AC080916C
:101400002C028D3071F380912C028F3051F380913A
:101410002C02883031F360912C028091120290E00E
:1014200081960E94A805809112028F5F809312021C
:10143000D8CF80916F00811114C080911202843145
:1014400080F480912C028D3019F180912C028F3024
:10145000F9F080912C028830F1F6809112028150CF
:10146000E5CF80916F008111BCCF80911202843151
:1014700008F4B7CF80912C028D3051F080912C026E
:101480008F3031F080912C02883009F0AACFE5CF5F
:1014900080911202883008F489CF60E080E190E00A
:1014A0000E94A8056091120283E190E00E94A805C5
:1014B000C0E080911202C81750F0E0911202F0E0F3
:1014C000EE5BFD4F1082CF911F910F9108950C2F6D
:1014D00010E0C80181960E94B005F801EE5BFD4F57
:1014E0008083CF5FE6CF84E691E00E94C10F8DE05C
:1014F0000E94720F81E091E00E94C10F82E30E947E
:10150000720F80E30E94720F8DE00E94720F1092A2
:10151000110280911102882321F185E491E00E945B
:10152000C10F84E30E94720F8DE291E00E94C10F0F
:101530008DE00E94720F81E691E00E94C10F8DE064
:101540000E94720F81E091E00E94C10F82E30E942D
:10155000720F80E30E94720F8DE00E94720F109252
:1015600011028CE292E00E94970F80936F008091AD
:101570006F0081111FC08091110281111BC08091E9
:101580002C028D3071F380912C028F3051F38091B9
:101590002C02883031F360912C028091110290E08E
:1015A0008F5B9F4F0E94A805809111028F5F8093EF
:1015B0001102D7CF80916F00811114C08091110268
:1015C000843180F480912C028D3019F180912C02AD
:1015D0008F30F9F080912C028830E9F68091110269
:1015E0008150E5CF80916F008111BBCF80911102B6
:1015F000843108F4B6CF80912C028D3051F0809167
:101600002C028F3031F080912C02883009F0A9CF64
:10161000E5CF80911102853008F47BCF60E081E155
:1016200090E00E94A8056091110284E190E00C9482
:10163000A805CF93DF9381E791E00E94C10F8DE071
:101640000E94720F81E080937100C0E08CE292E012
:101650000E94970F80936F0080916F00811114C0DA
:10166000C11112C080912C028D3081F380912C0227
:101670008F3061F380912C02883041F380912C02ED
:1016800080932D02C1E0E2CF80916F00811119C0DB
:10169000C431B8F480912C028D3041F180912C023C
:1016A0008F3021F180912C02883011F4C150CECFBF
:1016B000EC2FF0E080912C02E35DFD4F8083CF5F43
:1016C000C5CF80916F008111C1CFC43108F4BECF66
:1016D00080912C028D3051F080912C028F3031F0AE
:1016E00080912C02883009F0B1CFE0CF80911202B6
:1016F0008C1319C0C0E010C08C2F90E0FC01E35D9A
:10170000FD4F2081222361F0D08181960E94B00597
:10171000D81310927100CF5F809111028C1760F77F
:10172000DF91CF910895809112028C17C9F3109226
:101730007100F6CFCF93DF9380E891E00E94C10F54
:101740008DE00E94720F81E080937000C0E08CE217
:1017500092E00E94970F80936F0080916F0081113B
:1017600014C0C11112C080912C028D3081F3809180
:101770002C028F3061F380912C02883041F38091EC
:101780002C0280932D02C1E0E2CF80916F00811185
:1017900019C0C431B8F480912C028D3041F1809190
:1017A0002C028F3021F180912C02883011F4C1502D
:1017B000CECFEC2FF0E080912C02E35DFD4F8083D3
:1017C000CF5FC5CF80916F008111C1CFC43108F4C4
:1017D000BECF80912C028D3051F080912C028F3041
:1017E00031F080912C02883009F0B1CFE0CF8091A8
:1017F00011028C131AC0C0E011C08C2F90E0FC01C4
:10180000E35DFD4F2081222369F0D0818F5B9F4FE4
:101810000E94B005D81310927000CF5F8091110222
:10182000C81758F3DF91CF910895809111028C175A
:10183000C9F310927000F6CFCF938FE891E00E9429
:10184000C10FC5E388E00E94720F8C2F0E94720FB7
:101850002FEF89E698E1215080409040E1F700C0E9
:101860000000C150C03371F78DE00E94720F6FEF1E
:1018700082E190E00E94A80583E080937200CF91FE
:1018800008950F931F93CF9383E190E00E94B005DA
:101890008093120284E190E00E94B00580931102CF
:1018A00082E190E00E94B0058F3F31F082E190E04C
:1018B0000E94B0058093720080E190E00E94B00524
:1018C0008F3F49F48AE991E00E94C10F8DE00E94A8
:1018D000720F0E94BD0981E190E00E94B0058F3F28
:1018E00049F40E94730A89EA91E00E94C10F8DE0D9
:1018F0000E94720F80917200811102C00E941C0C24
:10190000C0E080911202C81720F0CF911F910F9173
:1019100008950C2F10E0C80181960E94B005F801CF
:10192000EE5BFD4F8083CF5FECCF0E94190B0E94CE
:101930009A0B80917100882321F0809170008111B1
:1019400036C08CEB91E00E94C10F8DE00E94720FB7
:10195000809172008150809372006091720082E1E8
:1019600090E00E94A80580917200882369F089EDBB
:1019700091E00E94C10F80917200805D0E94720F01
:101980008DE00E94720FD1CF809172008111CDCF76
:1019900089ED91E00E94C10F80917200805D0E94EC
:1019A000720F8DE00E94720F0E941C0CBECF87EE5A
:1019B00091E00E94C10F6FEF82E190E00E94A805C4
:1019C00083E0809372008DE00C94720F41E065E03B
:1019D00083E00C948E031DBC1CBC682F880F770B12
:1019E000880B990B0E94291221E63BE046EB5BE352
:1019F0000E94E91220E030E040EC5FE30E944411D5
:101A000020E030E04AE754E40E94E9120E94F81115
:101A10007BBD6ABD08950E9449000E9405070E948F
:101A2000640F0E9403020E94410C0E94670D0E94F5
:101A3000E60C41E060E081E00E948E0340E060E05F
:101A400081E00E94CE0341E061E081E00E948E03CC
:101A500040E061E081E00E94CE0340E062E081E08E
:101A60000E948E0386E00E94370666E080E00E94B6
:101A7000BC0566E085ED98E00E94670641E062E003
:101A800083E00E94590487E00E94370667E081E006
:101A90000E94BC0567E08EED98E00E94670640E07A
:101AA00063E083E00C948E0383B7806483BF83B7C5
:101AB000886083BF83B78F7E83BF83B7806283BF15
:101AC0001CBE83B7887F83BF83B783BF08958FB55C
:101AD0008E7F8FBD8FB582608FBD8EB588608EBDC5
:101AE0008EB580618EBD1BBC1ABC19BC18BC80E2CF
:101AF0009EE497BD86BD8EB580648EBD8FB58F7B0D
:101B00008FBD8FB580688FBD8FB58F7E8FBD8FB530
:101B100080628FBD89B78B7F89BF89B78F7E89BF70
:101B200089B7877F89BF89B78F7D89BF8EB5887F49
:101B30008EBD8EB582608EBD089582B5886082BDEF
:101B400085B58F7B85BD85B5877F85BD14BC89B77D
:101B5000806489BF85B5887F85BD85B5856085BD75
:101B6000089582BF08959DBD8CBD089584BD0895DC
:101B70008CBF08959BBD8ABD089599BD88BD089509
:101B800083BD089597BD86BD089582B708958CB52D
:101B90009DB5089584B508959BBD8ABD089595B5FA
:101BA000987F95BD95B5892B85BD089593B7987F8E
:101BB00093BF93B7892B83BF08958EB580648EBD84
:101BC00089B7806289BF0895813029F48EB5806419
:101BD0008EBD80E00895811104C09EB59F7B9EBD9F
:101BE000089581E0089589B7806289BF089589B713
:101BF0008F7D89BF089586B597B5089581B5887F93
:101C000081BD81B5866081BD089581B5886081BD43
:101C1000089581B5886181BD11BC0895009751F088
:101C2000E62FF0E0EE0FFF1FED5EFD4F9183808306
:101C300080E0089582E008951F920F920FB60F92F0
:101C400011242F933F934F935F936F937F938F93C1
:101C50009F93AF93BF93EF93FF93E0912902F0918D
:101C60002A02309709F00995FF91EF91BF91AF914A
:101C70009F918F917F916F915F914F913F912F91A4
:101C80000F900FBE0F901F9018951F920F920FB6D6
:101C90000F9211242F933F934F935F936F937F93F2
:101CA0008F939F93AF93BF93EF93FF93E09127029E
:101CB000F0912802309709F00995FF91EF91BF91BB
:101CC000AF919F918F917F916F915F914F913F91D4
:101CD0002F910F900FBE0F901F9018951F920F928B
:101CE0000FB60F9211242F933F934F935F936F93EF
:101CF0007F938F939F93AF93BF93EF93FF93E09165
:101D00002502F0912602309709F00995FF91EF9195
:101D1000BF91AF919F918F917F916F915F914F9103
:101D20003F912F910F900FBE0F901F9018951F920B
:101D30000F920FB60F9211242F933F934F935F93FF
:101D40006F937F938F939F93AF93BF93EF93FF9383
:101D5000E0912302F0912402309709F00995FF9158
:101D6000EF91BF91AF919F918F917F916F915F9113
:101D70004F913F912F910F900FBE0F901F9018958C
:101D80001F920F920FB60F9211242F933F934F93F0
:101D90005F936F937F938F939F93AF93BF93EF93D3
:101DA000FF93E0912102F0912202309709F009950A
:101DB000FF91EF91BF91AF919F918F917F916F9123
:101DC0005F914F913F912F910F900FBE0F901F90F9
:101DD00018951F920F920FB60F9211242F933F93D5
:101DE0004F935F936F937F938F939F93AF93BF9323
:101DF000EF93FF93E0911F02F0912002309709F0DA
:101E00000995FF91EF91BF91AF919F918F917F9134
:101E10006F915F914F913F912F910F900FBE0F9057
:101E20001F9018951F920F920FB60F9211242F93A7
:101E30003F934F935F936F937F938F939F93AF9352
:101E4000BF93EF93FF93E0911D02F0911E02309734
:101E500009F00995FF91EF91BF91AF919F918F91FB
:101E60007F916F915F914F913F912F910F900FBE96
:101E70000F901F9018951F920F920FB60F9211247A
:101E80002F933F934F935F936F937F938F939F9382
:101E9000AF93BF93EF93FF93E0911B02F0911C026D
:101EA000309709F00995FF91EF91BF91AF919F9104
:101EB0008F917F916F915F914F913F912F910F90F3
:101EC0000FBE0F901F901895599A10BC87E689B9DC
:101ED0005898529886E880BD579856985598549AC5
:101EE000539A0895982F8091230281111EC021E0FA
:101EF0002093230240E050E0BA015D990DC04031CB
:101F000027E252076105710511F484E00BC04F5FB1
:101F10005F4F6F4F7F4FF1CF4031574261057105E1
:101F2000A1F39CB910922302089583E00895FC0167
:101F3000892B19F180912302811121C091E09093A6
:101F4000230240E050E0BA015F990DC0403197E2B2
:101F500059076105710511F484E00CC04F5F5F4FB4
:101F60006F4F7F4FF1CF4031574261057105A1F3AB
:101F70009CB1908310922302089582E0089583E03B
:101F80000895CF93DF93EC01892B31F482E007C0F1
:101F90000E94720F811103C089918111F9CFDF91E5
:101FA000CF910895FC0180912302811116C03097D2
:101FB000B1F06115710599F091E090932302F093CF
:101FC0002B02E0932A027093250260932402109260
:101FD000260290819CB9569A089583E0089582E084
:101FE00008958F929F92AF92BF92CF92DF92EF921D
:101FF000FF92CF93DF930097F9F482E0DF91CF91C6
:10200000FF90EF90DF90CF90BF90AF909F908F9018
:102010000895CE018C0D9D1D0E94970F8111EECF6A
:102020008FEFC81AD80AE80AF80AC814D904EA04D3
:10203000FB0479F780E0E2CF4A015B01EC01C12C9F
:10204000D12C7601F2CFBC0180912302811117C0FF
:1020500061157105B1F02115310599F091E090936A
:102060002302709329026093280230932502209363
:1020700024024093270210922602579A089583E083
:10208000089582E008951F920F920FB60F921124C7
:102090002F933F934F935F936F937F938F939F9370
:1020A000AF93BF93EF93FF93809126029CB1E09191
:1020B0002802F0912902E80FF11D90838F5F809331
:1020C00026029091270289130CC0109226021092CA
:1020D0002302E0912402F0912502309709F009953E
:1020E0005798FF91EF91BF91AF919F918F917F9101
:1020F0006F915F914F913F912F910F900FBE0F9075
:102100001F9018951F920F920FB60F9211242F93C4
:102110003F934F935F936F937F938F939F93AF936F
:10212000BF93EF93FF93E0912602EF5FE0932602C7
:1021300080912A0290912B02E80FF92FF11D8081E6
:1021400081111DC01092260210922302E0912402F8
:10215000F0912502309709F009955698FF91EF917B
:10216000BF91AF919F918F917F916F915F914F91AF
:102170003F912F910F900FBE0F901F9018958CB923
:10218000EDCFAA1BBB1B51E107C0AA1FBB1FA6179F
:10219000B70710F0A61BB70B881F991F5A95A9F710
:1021A00080959095BC01CD010895A1E21A2EAA1B3D
:1021B000BB1BFD010DC0AA1FBB1FEE1FFF1FA217F7
:1021C000B307E407F50720F0A21BB30BE40BF50BF4
:1021D000661F771F881F991F1A9469F7609570957D
:1021E000809590959B01AC01BD01CF010895052E0E
:1021F00097FB1EF400940E940E1157FD07D00E9419
:10220000D51007FC03D04EF40C940E115095409558
:10221000309521953F4F4F4F5F4F08959095809592
:10222000709561957F4F8F4F9F4F08950E94341195
:10223000B7FF0895821B930B08950E943411A59F48
:10224000900DB49F900DA49F800D911D11240895B1
:102250000024A7FD00942A173005400550056005AD
:102260007005800590050895A29FB001B39FC0013D
:10227000A39F700D811D1124911DB29F700D811DB2
:102280001124911D08955058BB27AA270E945B1165
:102290000C94AF120E94A11238F00E94A81220F0F4
:1022A00039F49F3F19F426F40C948E120EF4E09545
:1022B000E7FB0C948812E92F0E94C01258F3BA175A
:1022C000620773078407950720F079F4A6F50C944C
:1022D000E2120EF4E0950B2EBA2FA02D0B01B901DE
:1022E00090010C01CA01A0011124FF27591B99F08C
:1022F000593F50F4503E68F11A16F040A22F232F98
:10230000342F4427585FF3CF469537952795A795E7
:10231000F0405395C9F77EF41F16BA0B620B730B8E
:10232000840BBAF09150A1F0FF0FBB1F661F771FFF
:10233000881FC2F70EC0BA0F621F731F841F48F4B4
:10234000879577956795B795F7959E3F08F0B0CF3D
:102350009395880F08F09927EE0F97958795089524
:102360000E94641208F481E00895BEE304D008F4EA
:1023700090E80895BFE322273327A9010E94C812DD
:1023800060F19F5748F1B91740F1BFE3B91B992796
:10239000B8503AF4660F771F881F991FB395D2F390
:1023A00016C0B8504AF0232F342F452F562F672FD1
:1023B000782F8827B850BAF7B85F49F08695779597
:1023C00067955795479537952795BA95B9F716F4B8
:1023D0000E94911288940895889460E070E0CB0187
:1023E00008950E94F8116894B1110C94E3120895B5
:1023F0000E94C81288F09F5798F0B92F9927B751BB
:10240000B0F0E1F0660F771F881F991F1AF0BA9598
:10241000C9F714C0B13091F00E94E212B1E0089502
:102420000C94E212672F782F8827B85F39F0B93FF4
:10243000CCF3869577956795B395D9F73EF490954B
:102440008095709561957F4F8F4F9F4F0895E894C9
:1024500009C097FB3EF490958095709561957F4FEC
:102460008F4F9F4F9923A9F0F92F96E9BB2793959A
:10247000F695879577956795B795F111F8CFFAF4AA
:10248000BB0F11F460FF1BC06F5F7F4F8F4F9F4FDB
:1024900016C0882311F096E911C0772321F09EE839
:1024A000872F762F05C0662371F096E8862F70E09F
:1024B00060E02AF09A95660F771F881FDAF7880F79
:1024C0009695879597F90895990F0008550FAA0BCF
:1024D000E0E8FEEF16161706E807F907C0F0121637
:1024E0001306E407F50798F0621B730B840B950B3A
:1024F00039F40A2661F0232B242B252B21F408958F
:102500000A2609F4A140A6958FEF811D811D08952B
:1025100097F99F6780E870E060E008959FEF80EC96
:10252000089590958095709560955095409530955B
:1025300021953F4F4F4F5F4F6F4F7F4F8F4F9F4FB3
:10254000089500240A941616170618060906089519
:1025500000240A9412161306140605060895092E7F
:102560000394000C11F4882352F0BB0F40F4BF2BEE
:1025700011F460FF04C06F5F7F4F8F4F9F4F08952E
:1025800057FD9058440F551F59F05F3F71F0479524
:10259000880F97FB991F61F09F3F79F08795089509
:1025A000121613061406551FF2CF4695F1DF08C028
:1025B000161617061806991FF1CF86957105610545
:1025C00008940895E894BB2766277727CB0197F9ED
:1025D00008950E94FC120C94AF120E94A11238F0D0
:1025E0000E94A81220F0952311F00C9488120C94EC
:1025F0008E1211240C94E3120E94C01270F3959F66
:10260000C1F3950F50E0551F629FF001729FBB27E9
:10261000F00DB11D639FAA27F00DB11DAA1F649F85
:102620006627B00DA11D661F829F2227B00DA11D38
:10263000621F739FB00DA11D621F839FA00D611DBE
:10264000221F749F3327A00D611D231F849F600DDF
:10265000211D822F762F6A2F11249F5750409AF008
:10266000F1F088234AF0EE0FFF1FBB1F661F771F94
:10267000881F91505040A9F79E3F510580F00C945F
:1026800088120C94E3125F3FE4F3983ED4F38695EE
:1026900077956795B795F795E7959F5FC1F7FE2BFF
:1026A000880F911D9695879597F90895F894FFCF17
:1026B00000010101091F08000301050000050001D8
:1026C00001010353656E736F7273203A00543A0030
:1026D0004C3A002500473A004E005900533A004753
:1026E000617264656E20446F6F72203A2000312D54
:1026F000204F70656E20202020202000322D204C9D
:102700006F636B00312D20446F6F720050726573E0
:102710007320656E74657220746F206F70656E2013
:1027200073797374656D0057656C636F6D65200018
:10273000736F6D656F6E65206F6E207468652064C1
:102740006F6F720053657420557365724E616D65CD
:10275000004D6178696D756D2063686172203A2063
:1027600000557365724E616D65204D7573742062FE
:1027700065204D6F7265207468616E20002043688B
:10278000617200526520456E7465722055736572E2
:102790004E616D650050617373576F7264204D75A3
:1027A0007374206265204D6F7265207468616E20BD
:1027B000005265205365742050617373576F7264C3
:1027C00000436865636B20557365724E616D6500EB
:1027D000436865636B2050617373576F7264005474
:1027E000696D65206F7574203A00506C6561736582
:1027F000205369676E2055700053617665642053DD
:1028000075636365737366756C6C7900496E766188
:102810006C696420557365726E616D65206F7220FE
:1028200050617373776F7264005472696573204CE2
:10283000656674203A20005375636365737366752B
:0C2840006C6C79205369676E20696E0093
:00000001FF
