:100000000C942A000C9481060C94AD060C94D9062D
:100010000C94650D0C943C0D0C94130D0C94EA0C8F
:100020000C94C10C0C94980C0C946F0C0C94460C12
:100030000C9447000C94760E0C9447000C94B50E6B
:100040000C943B010C9447000C9447000C9447001F
:100050000C94470011241FBECFE5D8E0DEBFCDBF12
:1000600011E0A0E6B0E0E2ECF6E202C005900D92ED
:10007000AC3FB107D9F722E0ACEFB1E001C01D926F
:10008000A635B207E1F70E9463100C945F130C943D
:1000900000003E9A3F983D9886B1887F86B986B128
:1000A000876086B93598379A33980895379A0895B6
:1000B00037980895339A089533980895823010F050
:1000C000833061F497B19F7397B927B130E4839F70
:1000D000C0011124822B87B980E0089581E0089542
:1000E000883040F496B1987F96B996B1892B86B93D
:1000F00080E0089581E00895811102C03D9808953F
:10010000813019F43D9A80E0089581E008958830A7
:1001100019F4359880E00895883038F4359A80B71E
:100120008F7180BF80B780BFF5CF81E00895FB015C
:1001300092E0309781F19091FC0191112EC021E065
:100140002093FC01803230F427B1207E27B927B1FB
:10015000822B87B9369A40E050E0BA0134990DC03D
:10016000403583EC58076105710511F491E011C029
:100170004F5F5F4F6F4F7F4FF1CF4035534C61055D
:100180007105A1F3349A84B125B1322F282F318320
:1001900020831092FC01892F089593E0FCCF611514
:1001A000710501F141155105E9F09091FC019111A2
:1001B0001BC021E02093FC01109201027093050204
:1001C000609304025093030240930202803230F4A1
:1001D00027B1207E27B927B1822B87B9369A339A67
:1001E000892F089592E0FCCF93E0FACFFC01892B90
:1001F000F1F1A081B1811097D1F1258136812115CE
:100200003105A9F1428153814115510581F1809158
:10021000FC0181112EC091E09093FC0190930102AA
:100220005093050240930402B0930002A093FF0193
:1002300094819093FE013093030220930202109266
:10024000FD019C91903280F497B1907E97B997B15F
:10025000E091FD012091FF0130910002E20FF32FA8
:10026000F11D2081922B97B9369A339A089582E036
:10027000089583E008951F920F920FB60F921124F4
:100280002F933F934F935F936F937F938F939F939E
:10029000AF93BF93EF93FF9380910102811124C02C
:1002A00094B185B1E0910402F09105028927982765
:1002B0008927918380831092FC01E0910202F091E2
:1002C000030209953398FF91EF91BF91AF919F91F0
:1002D0008F917F916F915F914F913F912F910F90EF
:1002E0000FBE0F901F901895813069F794B185B1BA
:1002F000E091FD012E2F30E0220F331FA091040268
:10030000B0910502A20FB31F8927982789278D93E3
:100310009C93EF5FE093FD018091FE01E81759F295
:100320008091FF0190910002E80FF92FF11D80816B
:10033000803280F487B1807E87B987B1E091FD017A
:100340002091FF0130910002E20FF32FF11D908107
:10035000892B87B9369AB7CF41E065E082E00E94E9
:10036000CE038FEC97E00197F1F700C0000040E06A
:1003700065E082E00E94CE038FEC97E00197F1F7F1
:1003800000C000000895CF93C82F41E067E082E0ED
:100390000E94CE0340E066E082E00E94CE036C2F14
:1003A00062956F7082E00E9406050E94AC016C2F7E
:1003B00082E00E940605CF910C94AC01CF93C82F28
:1003C00040E067E082E00E94CE0340E066E082E029
:1003D0000E94CE036C2F62956F7082E00E9406052A
:1003E0000E94AC016C2F82E00E940605CF910C9414
:1003F000AC0181E00E94DE018FE19EE40197F1F7FC
:1004000000C0000008952FE788E391E0215080406C
:100410009040E1F700C0000041E060E082E00E940F
:100420008E0341E061E082E00E948E0341E062E0E1
:1004300082E00E948E0341E063E082E00E948E032E
:1004400041E067E082E00E948E0341E066E082E0E6
:100450000E948E0341E065E082E00E948E0382E00C
:100460000E94DE018FE19EE40197F1F700C00000D9
:1004700088E20E94DE018FEC97E00197F1F700C05F
:1004800000008CE00E94DE018FEC97E00197F1F70D
:1004900000C000000E94F90186E00E94DE018FEC9E
:1004A00097E00197F1F700C0000008950F931F93A4
:1004B000CF938C01C0E0F801EC0FF11D8081811118
:1004C00004C0CF911F910F9108950E94C301CF5F87
:1004D000F2CF4F925F926F927F928F929F92AF92E4
:1004E000BF92CF92DF92EF92FF920F931F93CF9321
:1004F000DF936B017C01C114D104E104F10499F490
:1005000080E3DF91CF911F910F91FF90EF90DF90EB
:10051000CF90BF90AF909F908F907F906F905F90A3
:100520004F900C94C301F7FE0BC08DE20E94C301F3
:10053000F094E094D094C094C11CD11CE11CF11C37
:1005400061E070E080E090E03AE0832E912CA12CF5
:10055000B12CAAE0B0E09B01AC010E9426112B0156
:100560003C01C701B601A50194010E940011640D70
:10057000751D861D971D69017A01C114D104E1041E
:10058000F10439F72AE0C22ED12CE12CF12C613094
:1005900071058105910589F4DF91CF911F910F912C
:1005A000FF90EF90DF90CF90BF90AF909F908F9093
:1005B0007F906F905F904F900895A70196010E94E1
:1005C000DE108901D42FC52F80E3860F0E94C3015E
:1005D000B8018D2F9C2FDBCFCF92DF92EF92FF924D
:1005E0006B017C010E94FA110E94690220E030E058
:1005F000A901C701B6010E94B91187FF04C0F7FA2B
:10060000F094F7F8F094C701B6010E94FA110E9425
:1006100032129B01AC01C701B6010E944C1120E0CF
:1006200030E44CE156E40E94F2126B017C010E941E
:10063000BE11A0E00E94311169F08EE20E94C30158
:10064000C701B6010E94FA11FF90EF90DF90CF90A2
:100650000C946902FF90EF90DF90CF900895982F4F
:10066000862F2FEF290F2430D0F42FEF260F2431BF
:10067000B0F4913051F481580E94DE018FEC97E084
:100680000197F1F700C000000895923011F48154F1
:10069000F3CF933011F48D56EFCF8D52EDCF80E82C
:1006A000EBCFEF92FF920F931F93CF93DF93182F0F
:1006B000062F80E40E94DE01C0E6D0E088E6E82E46
:1006C00080E0F82E89910E94C301EC16FD06D1F757
:1006D000602F812F0E942F03C0E08C2F0E94C30146
:1006E000CF5FC830D1F7DF91CF911F910F91FF906D
:1006F000EF9008958CE10E94DE018FEC97E0019766
:10070000F1F700C00000089588E10E94DE018FEC3F
:1007100097E00197F1F700C0000008958430E0F5FC
:100720006830D0F54130E9F421E030E001C0220F1B
:100730006A95EAF7823069F0833079F0813021F0F0
:100740008AB3282B2ABB03C087B3282B27BB81E0A1
:10075000089584B3282B24BBFACF81B3282B21BB67
:10076000F6CF411119C021E030E001C0220F6A9597
:10077000EAF72095823051F0833059F0813019F03A
:100780008AB32823DFCF87B32823E0CF84B328237D
:10079000E2CF81B32823E3CF80E008958430E0F5F1
:1007A0006830D0F54130E9F421E030E001C0220F9B
:1007B0006A95EAF7823069F0833079F0813021F070
:1007C0008BB3282B2BBB03C088B3282B28BB81E01D
:1007D000089585B3282B25BBFACF82B3282B22BBE3
:1007E000F6CF411119C021E030E001C0220F6A9517
:1007F000EAF72095823051F0833059F0813019F0BA
:100800008BB32823DFCF88B32823E0CF85B32823F9
:10081000E2CF82B32823E3CF80E00895FA01843049
:1008200018F5683008F521E030E0062E02C0220FEE
:10083000331F0A94E2F7823099F0833099F08130C7
:1008400069F099B3892F90E08223932302C0959594
:1008500087956A95E2F7808381E0089596B3F2CF99
:1008600093B3F0CF90B3EECF80E008958430F8F4E6
:100870006830E8F421E030E001C0220F6A95EAF721
:10088000823069F0833079F0813029F08BB32827EA
:100890002BBB81E0089588B3282728BBFACF85B306
:1008A000282725BBF6CF82B3282722BBF2CF80E0D2
:1008B0000895843008F052C0683008F04FC021E03D
:1008C00030E001C0220F6A95EAF7922F90958230AE
:1008D00029F1833099F1813089F0413059F480B7A2
:1008E0008B7F80BF8AB398239ABB8BB3282B2BBBFB
:1008F00081E008958BB398239BBBFACF413051F42C
:1009000080B78B7F80BF87B3982397BB88B3282B92
:1009100028BBEECF88B3982398BBEACF413051F47F
:1009200080B78B7F80BF84B3982394BB85B3282B7B
:1009300025BBDECF85B3982395BBDACF413051F488
:1009400080B78B7F80BF81B3982391BB82B3282B64
:1009500022BBCECF82B3982392BBCACF80E008954A
:10096000843078F4823049F0833049F0813019F0D6
:100970006ABB81E0089567BBFCCF64BBFACF61BB63
:10098000F8CF80E00895843078F4823049F08330E5
:1009900049F0813019F06BBB81E0089568BBFCCF52
:1009A00065BBFACF62BBF8CF80E00895FB018430CD
:1009B00080F4823051F0833051F0813021F089B3DE
:1009C000808381E0089586B3FBCF83B3F9CF80B3F2
:1009D000F7CF80E008958430B8F4823069F0833036
:1009E00079F0813029F08BB380958BBB81E008953D
:1009F00088B3809588BBFACF85B3809585BBF6CF49
:100A000082B3809582BBF2CF80E00895843020F5D8
:100A10006F70823099F08330C1F0813041F08BB338
:100A2000807F8BBB8BB3682B6BBB81E0089588B351
:100A3000807F88BB88B3682B68BBF7CF85B3807F86
:100A400085BB85B3682B65BBF0CF82B3807F82BB4B
:100A500082B3682B62BBE9CF80E00895843028F52B
:100A60006295607F823099F08330C1F0813041F02F
:100A70008BB38F708BBB8BB3682B6BBB81E00895FE
:100A800088B38F7088BB88B3682B68BBF7CF85B3FA
:100A90008F7085BB85B3682B65BBF0CF82B38F7039
:100AA00082BB82B3682B62BBE9CF80E008958430BB
:100AB00020F56F70823099F08330C1F0813041F0C1
:100AC0008AB3807F8ABB8AB3682B6ABB81E00895B2
:100AD00087B3807F87BB87B3682B67BBF7CF84B3AF
:100AE000807F84BB84B3682B64BBF0CF81B3807FED
:100AF00081BB81B3682B61BBE9CF80E0089584306E
:100B000028F56295607F823099F08330C1F08130A2
:100B100041F08AB38F708ABB8AB3682B6ABB81E0CD
:100B2000089587B38F7087BB87B3682B67BBF7CFF8
:100B300084B38F7084BB84B3682B64BBF0CF81B364
:100B40008F7081BB81B3682B61BBE9CF80E00895D2
:100B50009FBB8EBB6DBBE29AE19AE199FECF0895EF
:100B60008EBB9FBBE09A8DB3089585B78E7F85BFFE
:100B700085B7826085BF08959AEF960F923008F08E
:100B800053C0692F660F8130E1F130F1823019F0E6
:100B90008330B9F0089545B781E090E09C01062EBE
:100BA00001C0220F0A94EAF72095242325BF25B718
:100BB0006F5F01C0880F6A95EAF78095822385BF31
:100BC000089525B781E090E0AC01062E01C0440FE6
:100BD0000A94EAF7242BEACF45B721E030E0C901B7
:100BE000062E01C0880F0A94EAF78095842385BFFA
:100BF00085B76F5F01C0220F6A95EAF7282B25BFE2
:100C0000089525B781E090E0AC01062E01C0440FA5
:100C10000A94EAF7242B25BF25B76F5F01C0880F20
:100C20006A95EAF7822BCBCF653041F4882319F01F
:100C3000813029F0089584B78F7B84BF089584B7ED
:100C40008064FBCF9BEF980F933078F44BB721E093
:100C500030E0B90102C0660F771F8A95E2F7CB0139
:100C6000809584238BBF80E0089581E008959BEFF9
:100C7000980F933060F49BB721E030E001C0220F61
:100C80008A95EAF7892F822B8BBF80E0089581E057
:100C900008959AB721E030E001C0220F8A95EAF763
:100CA000922B9ABF08954AB721E030E0082E02C087
:100CB000220F331F0A94E2F750E024233523A901C1
:100CC00002C0559547958A95E2F7CA0108950097A5
:100CD000B1F0663031F4909307028093060280E011
:100CE0000895673029F49093090280930802F7CFA2
:100CF000653029F490930B0280930A02F0CF81E0D3
:100D000008951F920F920FB60F9211242F933F93C5
:100D10004F935F936F937F938F939F93AF93BF9303
:100D2000EF93FF93E0910602F0910702309721F0D4
:100D3000099586E00E944906FF91EF91BF91AF911E
:100D40009F918F917F916F915F914F913F912F91E3
:100D50000F900FBE0F901F9018951F920F920FB615
:100D60000F9211242F933F934F935F936F937F9331
:100D70008F939F93AF93BF93EF93FF93E0910802FC
:100D8000F0910902309721F0099587E00E94490609
:100D9000FF91EF91BF91AF919F918F917F916F9153
:100DA0005F914F913F912F910F900FBE0F901F9029
:100DB00018951F920F920FB60F9211242F933F9305
:100DC0004F935F936F937F938F939F93AF93BF9353
:100DD000EF93FF93E0910A02F0910B02309721F01C
:100DE000099585E00E944906FF91EF91BF91AF916F
:100DF0009F918F917F916F915F914F913F912F9133
:100E00000F900FBE0F901F9018958FB780688FBFFF
:100E100008958FB78F778FBF0895EF92FF920F934A
:100E20001F93CF93DF9300D0CDB7DEB77C018B014A
:100E3000BE016F5F7F4FFC0180810E949700F70128
:100E40008281811120C069817A8190E080E00E94D6
:100E5000301220E030E040E85AE30E94F21220E035
:100E600030E048EC52E40E94F2120E940112F801B4
:100E7000608380E00F900F90DF91CF911F910F91D1
:100E8000FF90EF9008958130A1F769817A8190E019
:100E900080E00E94301220E030E040E85BE3DDCFEC
:100EA000AF92BF92CF92DF92EF92FF920F931F9378
:100EB000CF93DF9300D0CDB7DEB76C018B01FC017F
:100EC000218188EE93E0289F5001299FB00C1124C6
:100ED000BE016F5F7F4F80810E949700F601828183
:100EE000811122C029813A81D5010E941F113AE067
:100EF00096958795779567953A95D1F77B01C701C8
:100F00006AE070E00E94CA10F801608380E00F90F0
:100F10000F90DF91CF911F910F91FF90EF90DF9095
:100F2000CF90BF90AF900895813049F729813A81E1
:100F3000D5010E941F11672F782F892F9927DECFA7
:100F4000CF92DF92EF92FF920F931F93CF93DF9395
:100F500000D0CDB7DEB77C018B01FC01218188EE8A
:100F600093E0289F6001299FD00C1124BE016F5F80
:100F70007F4F80810E949700F701828181111BC001
:100F800029813A81D6010E941F113AE096958795F2
:100F9000779567953A95D1F7F8017183608380E082
:100FA0000F900F90DF91CF911F910F91FF90EF90D5
:100FB000DF90CF900895813091F729813A81D60151
:100FC0000E941F11672F782F892F9927E5CF0F9344
:100FD0001F93CF9383E790E00E94EB0D8DE00E947A
:100FE0009C0D80E890E00E94EB0D82E30E949C0D36
:100FF00080E30E949C0D8DE00E949C0D10920D02DA
:1010000080910D028823B9F080E990E00E94EB0DF9
:1010100087E30E949C0D8CEA90E00E94EB0D8DE02E
:101020000E949C0D82EB90E00E94EB0D8DE00E94EF
:101030009C0D10920D0281E492E00E94C10D8093FC
:1010400068008091680081111EC080910D0281119D
:101050001AC0809141028D3071F3809141028F302E
:1010600051F380914102883031F3609141028091C7
:101070000D0290E081960E94A80580910D028F5F7D
:1010800080930D02D8CF80916800811114C08091A7
:101090000D02843180F4809141028D3019F18091EC
:1010A00041028F30F9F0809141028830F1F6809151
:1010B0000D028150E5CF809168008111BCCF8091F5
:1010C0000D02843108F4B7CF809141028D3051F088
:1010D000809141028F3031F080914102883009F0D7
:1010E000AACFE5CF80910D02883008F489CF60E067
:1010F00080E190E00E94A80560910D0283E190E0FC
:101100000E94A805C0E080910D02C81750F0E09140
:101110000D02F0E0EE5BFD4F1082CF911F910F9119
:1011200008950C2F10E0C80181960E94B005F801C7
:10113000EE5BFD4F8083CF5FE6CF83EE90E00E94B1
:10114000EB0D8DE00E949C0D80E890E00E94EB0D7D
:1011500082E30E949C0D80E30E949C0D8DE00E9422
:101160009C0D10920C0280910C02882321F184ECDA
:1011700090E00E94EB0D84E30E949C0D8CEA90E0CD
:101180000E94EB0D8DE00E949C0D80EE90E00E948D
:10119000EB0D8DE00E949C0D80E890E00E94EB0D2D
:1011A00082E30E949C0D80E30E949C0D8DE00E94D2
:1011B0009C0D10920C0281E492E00E94C10D80937C
:1011C00068008091680081111FC080910C0281111C
:1011D0001BC0809141028D3071F3809141028F30AC
:1011E00051F380914102883031F360914102809146
:1011F0000C0290E08F5B9F4F0E94A80580910C022B
:101200008F5F80930C02D7CF80916800811114C04A
:1012100080910C02843180F4809141028D3019F16B
:10122000809141028F30F9F0809141028830E9F6D7
:1012300080910C028150E5CF809168008111BBCF75
:1012400080910C02843108F4B6CF809141028D3038
:1012500051F0809141028F3031F08091410288300D
:1012600009F0A9CFE5CF80910C02853008F47BCF3F
:1012700060E081E190E00E94A80560910C0284E1A9
:1012800090E00C94A805CF93DF9380EF90E00E944C
:10129000EB0D8DE00E949C0D81E080936A00C0E020
:1012A00081E492E00E94C10D809368008091680003
:1012B000811114C0C11112C0809141028D3081F39F
:1012C000809141028F3061F380914102883041F377
:1012D0008091410280932C02C1E0E2CF80916800AE
:1012E000811119C0C431B8F4809141028D3041F1AF
:1012F000809141028F3021F180914102883011F4B8
:10130000C150CECFEC2FF0E080914102E45DFD4F63
:101310008083CF5FC5CF809168008111C1CFC43178
:1013200008F4BECF809141028D3051F0809141028E
:101330008F3031F080914102883009F0B1CFE0CF99
:1013400080910D028C1319C0C0E010C08C2F90E06A
:10135000FC01E45DFD4F2081222361F0D081819664
:101360000E94B005D81310926A00CF5F80910C02E2
:101370008C1760F7DF91CF91089580910D028C1743
:10138000C9F310926A00F6CFCF93DF938FEF90E00E
:101390000E94EB0D8DE00E949C0D81E0809369001E
:1013A000C0E081E492E00E94C10D809368008091CA
:1013B0006800811114C0C11112C0809141028D30AA
:1013C00081F3809141028F3061F380914102883036
:1013D00041F38091410280932C02C1E0E2CF8091E1
:1013E0006800811119C0C431B8F4809141028D3078
:1013F00041F1809141028F3021F18091410288308A
:1014000011F4C150CECFEC2FF0E080914102E45DA9
:10141000FD4F8083CF5FC5CF809168008111C1CF20
:10142000C43108F4BECF809141028D3051F08091DB
:1014300041028F3031F080914102883009F0B1CF04
:10144000E0CF80910C028C131AC0C0E011C08C2F29
:1014500090E0FC01E45DFD4F2081222369F0D08102
:101460008F5B9F4F0E94B005D81310926900CF5F29
:1014700080910C02C81758F3DF91CF9108958091A5
:101480000C028C17C9F310926900F6CFCF938EE04F
:1014900091E00E94EB0DC5E388E00E949C0D8C2F2B
:1014A0000E949C0D2FEF89E698E1215080409040EA
:1014B000E1F700C00000C150C03371F78DE00E9419
:1014C0009C0D6FEF82E190E00E94A80583E080937D
:1014D0006B00CF9108950F931F93CF9383E190E01A
:1014E0000E94B00580930D0284E190E00E94B00557
:1014F00080930C0282E190E00E94B0058F3F31F0B2
:1015000082E190E00E94B00580936B0080E190E062
:101510000E94B0058F3F49F489E191E00E94EB0DF4
:101520008DE00E949C0D0E94E70781E190E00E94FF
:10153000B0058F3F49F40E949D0888E291E00E9427
:10154000EB0D8DE00E949C0D80916B00811102C01B
:101550000E94460AC0E080910D02C81720F0CF918A
:101560001F910F9108950C2F10E0C80181960E94E1
:10157000B005F801EE5BFD4F8083CF5FECCF0E949A
:1015800043090E94C40980916A00882321F0809158
:101590006900811136C08BE391E00E94EB0D8DE074
:1015A0000E949C0D80916B00815080936B00609134
:1015B0006B0082E190E00E94A80580916B00882377
:1015C00069F088E591E00E94EB0D80916B00805DF1
:1015D0000E949C0D8DE00E949C0DD1CF80916B00EC
:1015E0008111CDCF88E591E00E94EB0D80916B00D9
:1015F000805D0E949C0D8DE00E949C0D0E94460A19
:10160000BECF86E691E00E94EB0D6FEF82E190E0A5
:101610000E94A80583E080936B008DE00C949C0DE4
:1016200041E065E083E00C948E031DBC1CBC682F78
:10163000880F770B880B990B0E94321221E63BE052
:1016400046EB5BE30E94F21220E030E040EC5FE307
:101650000E944D1120E030E04AE754E40E94F2126B
:101660000E9401127BBD6ABD08950E9449000E943C
:1016700005070E948E0D0E9403020E946B0A0E94C1
:10168000910B0E94100B41E060E081E00E948E030C
:1016900040E060E081E00E94CE0341E061E081E053
:1016A0000E948E0340E061E081E00E94CE0340E0B2
:1016B00062E081E00E948E0386E00E94370666E0C9
:1016C00080E00E94BC0566E08CEB90E10E9467061A
:1016D00041E062E083E00E94590487E00E943706FF
:1016E00067E081E00E94BC0567E085EC90E10E9424
:1016F000670640E063E083E00C948E0383B7806468
:1017000083BF83B7886083BF83B78F7E83BF83B770
:10171000806283BF1CBE83B7887F83BF83B783BFCC
:1017200008958FB58E7F8FBD8FB582608FBD8EB5CA
:1017300088608EBD8EB580618EBD1BBC1ABC19BC85
:1017400018BC80E29EE497BD86BD8EB580648EBDD8
:101750008FB58F7B8FBD8FB580688FBD8FB58F7E26
:101760008FBD8FB580628FBD89B78B7F89BF89B7E9
:101770008F7E89BF89B7877F89BF89B78F7D89BFF2
:101780008EB5887F8EBD8EB582608EBD089582B580
:10179000886082BD85B58F7B85BD85B5877F85BD1A
:1017A00014BC89B7806489BF85B5887F85BD85B540
:1017B000856085BD089582BF08959DBD8CBD089547
:1017C00084BD08958CBF08959BBD8ABD089599BDC1
:1017D00088BD089583BD089597BD86BD089582B7DD
:1017E00008958CB59DB5089584B508959BBD8ABDB7
:1017F000089595B5987F95BD95B5892B85BD0895BC
:1018000093B7987F93BF93B7892B83BF08958EB505
:1018100080648EBD89B7806289BF0895813029F4C4
:101820008EB580648EBD80E00895811104C09EB5A0
:101830009F7B9EBD089581E0089589B7806289BF2E
:10184000089589B78F7D89BF089586B597B50895A6
:1018500081B5887F81BD81B5866081BD089581B5E0
:10186000886081BD089581B5886181BD11BC0895EE
:10187000009751F0E62FF0E0EE0FFF1FE25FFD4F03
:101880009183808380E0089582E008951F920F92F3
:101890000FB60F9211242F933F934F935F936F9343
:1018A0007F938F939F93AF93BF93EF93FF93E091B9
:1018B0002402F0912502309709F00995FF91EF91EC
:1018C000BF91AF919F918F917F916F915F914F9158
:1018D0003F912F910F900FBE0F901F9018951F9260
:1018E0000F920FB60F9211242F933F934F935F9354
:1018F0006F937F938F939F93AF93BF93EF93FF93D8
:10190000E0912202F0912302309709F00995FF91AE
:10191000EF91BF91AF919F918F917F916F915F9167
:101920004F913F912F910F900FBE0F901F901895E0
:101930001F920F920FB60F9211242F933F934F9344
:101940005F936F937F938F939F93AF93BF93EF9327
:10195000FF93E0912002F0912102309709F0099560
:10196000FF91EF91BF91AF919F918F917F916F9177
:101970005F914F913F912F910F900FBE0F901F904D
:1019800018951F920F920FB60F9211242F933F9329
:101990004F935F936F937F938F939F93AF93BF9377
:1019A000EF93FF93E0911E02F0911F02309709F030
:1019B0000995FF91EF91BF91AF919F918F917F9189
:1019C0006F915F914F913F912F910F900FBE0F90AC
:1019D0001F9018951F920F920FB60F9211242F93FC
:1019E0003F934F935F936F937F938F939F93AF93A7
:1019F000BF93EF93FF93E0911C02F0911D0230978B
:101A000009F00995FF91EF91BF91AF919F918F914F
:101A10007F916F915F914F913F912F910F900FBEEA
:101A20000F901F9018951F920F920FB60F921124CE
:101A30002F933F934F935F936F937F938F939F93D6
:101A4000AF93BF93EF93FF93E0911A02F0911B02C3
:101A5000309709F00995FF91EF91BF91AF919F9158
:101A60008F917F916F915F914F913F912F910F9047
:101A70000FBE0F901F9018951F920F920FB60F92E6
:101A800011242F933F934F935F936F937F938F9383
:101A90009F93AF93BF93EF93FF93E0911802F09160
:101AA0001902309709F00995FF91EF91BF91AF911D
:101AB0009F918F917F916F915F914F913F912F9166
:101AC0000F900FBE0F901F9018951F920F920FB698
:101AD0000F9211242F933F934F935F936F937F93B4
:101AE0008F939F93AF93BF93EF93FF93E091160271
:101AF000F0911702309709F00995FF91EF91BF918E
:101B0000AF919F918F917F916F915F914F913F9195
:101B10002F910F900FBE0F901F901895599A10BCDF
:101B200087E689B95898529886E880BD57985698A4
:101B30005598549A539A0895982F80911E028111B6
:101B40001EC021E020931E0240E050E0BA015D99E2
:101B50000DC0403127E252076105710511F484E0A0
:101B60000BC04F5F5F4F6F4F7F4FF1CF40315742F8
:101B700061057105A1F39CB910921E02089583E0DE
:101B80000895FC01892B19F180911E02811121C059
:101B900091E090931E0240E050E0BA015F990DC0C1
:101BA000403197E259076105710511F484E00CC0DA
:101BB0004F5F5F4F6F4F7F4FF1CF4031574261050D
:101BC0007105A1F39CB1908310921E02089582E0EA
:101BD000089583E00895CF93DF93EC01892B79F486
:101BE00082E010C00E949C0D2FEF30E792E0215060
:101BF00030409040E1F700C00000811103C089919E
:101C00008111F0CFDF91CF910895FC0180911E02E8
:101C1000811116C03097B1F06115710599F091E00E
:101C200090931E02F0932602E09325027093200207
:101C300060931F021092210290819CB9569A0895D8
:101C400083E0089582E008958F929F92AF92BF92B1
:101C5000CF92DF92EF92FF92CF93DF930097F9F448
:101C600082E0DF91CF91FF90EF90DF90CF90BF9017
:101C7000AF909F908F900895CE018C0D9D1D0E9476
:101C8000C10D8111EECF8FEFC81AD80AE80AF80A01
:101C9000C814D904EA04FB0479F780E0E2CF4A01D2
:101CA0005B01EC01C12CD12C7601F2CFBC018091FB
:101CB0001E02811117C061157105B1F021153105A2
:101CC00099F091E090931E02709324026093230296
:101CD0003093200220931F0240932202109221028F
:101CE000579A089583E0089582E008951F920F9215
:101CF0000FB60F9211242F933F934F935F936F93DF
:101D00007F938F939F93AF93BF93EF93FF938091B4
:101D100021029CB1E0912302F0912402E80FF11D11
:101D200090838F5F809321029091220289130CC0CF
:101D30001092210210921E02E0911F02F0912002E7
:101D4000309709F009955798FF91EF91BF91AF91A6
:101D50009F918F917F916F915F914F913F912F91C3
:101D60000F900FBE0F901F9018951F920F920FB6F5
:101D70000F9211242F933F934F935F936F937F9311
:101D80008F939F93AF93BF93EF93FF93E0912102C3
:101D9000EF5FE09321028091250290912602E80FE7
:101DA000F92FF11D808181111DC010922102109226
:101DB0001E02E0911F02F0912002309709F0099570
:101DC0005698FF91EF91BF91AF919F918F917F9125
:101DD0006F915F914F913F912F910F900FBE0F9098
:101DE0001F9018958CB9EDCF80916C0082FD8AC050
:101DF000846080936C000E94F9018BE791E00E945F
:101E0000560261E082E00E942F0385E891E00E9483
:101E100056026BE272E080E790E00E94500760910A
:101E20002B0270E090E080E00E9469028FEA91E06E
:101E30000E94560288E891E00E9456026AE272E02F
:101E40008DE690E00E940D0760912A0270E090E01C
:101E500080E00E9469028BE891E00E94560247E20E
:101E600052E063E083E00E940E048091270269E063
:101E7000813091F183E00E942F038DE891E00E9470
:101E8000560280E991E00E94560280912A0241E0C8
:101E9000823318F0823329F040E060E081E00E9454
:101EA000CE0348E252E062E081E00E940E0461E06D
:101EB00083E00E942F0384E991E00E945602809102
:101EC0002802811115C041E061E081E00E94CE034B
:101ED00080E991E00C94560283E00E942F038DE884
:101EE00091E00E94560282E991E00E945602D9CF09
:101EF000813009F072C040E061E00E94CE0382E9C7
:101F000091E0E8CF63E082E00E942F036BE272E091
:101F100080E790E00E94500760912B0270E090E013
:101F200080E00E9469026BE082E00E942F036AE277
:101F300072E08DE690E00E940D0760912A0270E049
:101F400090E080E00E9469028BE891E00E945602D6
:101F500047E252E063E083E00E940E048091270292
:101F60006BE0813039F183E00E942F0380E991E03A
:101F70000E94560280912A0241E0823318F0823397
:101F800029F040E060E081E00E94CE0348E252E0A8
:101F900062E081E00E940E0480912802811112C04B
:101FA00041E061E081E00E94CE0363E083E00E94B3
:101FB0002F038ECF83E00E942F0382E991E00E94DD
:101FC0005602E4CF813049F440E061E00E94CE0344
:101FD00063E083E00E942F0392CF08958DE00E947A
:101FE0009C0D87E991E00E94EB0D8DE00E949C0D15
:101FF00086EA91E00E94EB0D84EB91E00E94EB0DEC
:102000008DE00E949C0D0E94F40E81E492E00E94FB
:10201000C10D809368008091680081111FC080917C
:102020004102813379F08233B9F0883081F48DE058
:102030000E949C0D8CEB91E00E94EB0D8DE00E94C4
:102040009C0D05C080E00E94150B10922902809122
:1020500041028830C1F608958AE5F5CF8091680085
:102060008430A9F7809129028F5F80932902EFCFF6
:102070008DE00E949C0D8CEB91E00E94EB0D8DE0B9
:102080000E949C0D0E94F40E81E492E00E94C10D1A
:10209000809368008091680081110BC0809141029B
:1020A000813311F40E94EE0F80914102883051F784
:1020B0000895809168008430B9F7809129028F5F7C
:1020C00080932902F1CF0E94350BC4E1D0E08091CA
:1020D0006C0080FFFFCF10922902826080936C0019
:1020E00084EC91E00E94EB0D81E492E00E94C10D2E
:1020F00080936800809168008111F6CF8091410241
:102100008D3091F70E94BF0A0E94F90167E082E0DA
:102110000E942F038FED91E00E94560280910D02E4
:10212000BE01681B710977FF02C06F5F7F4F759515
:1021300067956F5F83E00E942F0382E492E00E9424
:1021400056028FED91E00E94EB0D82E492E00E9436
:10215000EB0D2FEF89E698E1215080409040E1F7A8
:1021600000C0000080916C008E7F80936C000E9404
:10217000F40E0E943810ABCF88EE91E00E94EB0D78
:102180008DE00E949C0D0C94EE0F40E060E081E039
:102190000C94CE03AA1BBB1B51E107C0AA1FBB1F97
:1021A000A617B70710F0A61BB70B881F991F5A95E3
:1021B000A9F780959095BC01CD010895A1E21A2E52
:1021C000AA1BBB1BFD010DC0AA1FBB1FEE1FFF1FDB
:1021D000A217B307E407F50720F0A21BB30BE40B2B
:1021E000F50B661F771F881F991F1A9469F7609572
:1021F0007095809590959B01AC01BD01CF0108952C
:10220000052E97FB1EF400940E94171157FD07D06E
:102210000E94DE1007FC03D04EF40C941711509569
:102220004095309521953F4F4F4F5F4F08959095C2
:102230008095709561957F4F8F4F9F4F08950E94B5
:102240003D11B7FF0895821B930B08950E943D1125
:10225000A59F900DB49F900DA49F800D911D1124FA
:1022600008950024A7FD00942A1730054005500565
:1022700060057005800590050895A29FB001B39F89
:10228000C001A39F700D811D1124911DB29F700D7F
:10229000811D1124911D08955058BB27AA270E9423
:1022A00064110C94B8120E94AA1238F00E94B11264
:1022B00020F039F49F3F19F426F40C9497120EF491
:1022C000E095E7FB0C949112E92F0E94C91258F394
:1022D000BA17620773078407950720F079F4A6F50B
:1022E0000C94EB120EF4E0950B2EBA2FA02D0B01DF
:1022F000B90190010C01CA01A0011124FF27591B4B
:1023000099F0593F50F4503E68F11A16F040A22F50
:10231000232F342F4427585FF3CF469537952795C1
:10232000A795F0405395C9F77EF41F16BA0B620BC0
:10233000730B840BBAF09150A1F0FF0FBB1F661F07
:10234000771F881FC2F70EC0BA0F621F731F841F4A
:1023500048F4879577956795B795F7959E3F08F070
:10236000B0CF9395880F08F09927EE0F9795879532
:1023700008950E946D1208F481E00895BEE304D030
:1023800008F490E80895BFE322273327A9010E94AB
:10239000D11260F19F5748F1B91740F1BFE3B91B63
:1023A0009927B8503AF4660F771F881F991FB39585
:1023B000D2F316C0B8504AF0232F342F452F562F92
:1023C000672F782F8827B850BAF7B85F49F08695FD
:1023D000779567955795479537952795BA95B9F7A6
:1023E00016F40E949A1288940895889460E070E030
:1023F000CB0108950E9401126894B1110C94EC1263
:1024000008950E94D11288F09F5798F0B92F99270C
:10241000B751B0F0E1F0660F771F881F991F1AF0CF
:10242000BA95C9F714C0B13091F00E94EB12B1E037
:1024300008950C94EB12672F782F8827B85F39F036
:10244000B93FCCF3869577956795B395D9F73EF468
:1024500090958095709561957F4F8F4F9F4F089510
:10246000E89409C097FB3EF490958095709561952E
:102470007F4F8F4F9F4F9923A9F0F92F96E9BB27E4
:102480009395F695879577956795B795F111F8CF60
:10249000FAF4BB0F11F460FF1BC06F5F7F4F8F4FCB
:1024A0009F4F16C0882311F096E911C0772321F0C1
:1024B0009EE8872F762F05C0662371F096E8862F59
:1024C00070E060E02AF09A95660F771F881FDAF7B0
:1024D000880F9695879597F90895990F0008550FDD
:1024E000AA0BE0E8FEEF16161706E807F907C0F09A
:1024F00012161306E407F50798F0621B730B840BA2
:10250000950B39F40A2661F0232B242B252B21F47B
:1025100008950A2609F4A140A6958FEF811D811D1B
:10252000089597F99F6780E870E060E008959FEF55
:1025300080EC0895909580957095609550954095A4
:10254000309521953F4F4F4F5F4F6F4F7F4F8F4FCC
:102550009F4F089500240A941616170618060906B8
:10256000089500240A941216130614060506089509
:10257000092E0394000C11F4882352F0BB0F40F491
:10258000BF2B11F460FF04C06F5F7F4F8F4F9F4FD1
:10259000089557FD9058440F551F59F05F3F71F053
:1025A0004795880F97FB991F61F09F3F79F08795BA
:1025B0000895121613061406551FF2CF4695F1DF43
:1025C00008C0161617061806991FF1CF86957105D3
:1025D000610508940895E894BB2766277727CB0107
:1025E00097F908950E9405130C94B8120E94AA123C
:1025F00038F00E94B11220F0952311F00C94911242
:102600000C94971211240C94EC120E94C91270F3CE
:10261000959FC1F3950F50E0551F629FF001729F87
:10262000BB27F00DB11D639FAA27F00DB11DAA1F96
:10263000649F6627B00DA11D661F829F2227B00DE3
:10264000A11D621F739FB00DA11D621F839FA00D6E
:10265000611D221F749F3327A00D611D231F849FBE
:10266000600D211D822F762F6A2F11249F57504015
:102670009AF0F1F088234AF0EE0FFF1FBB1F661F90
:10268000771F881F91505040A9F79E3F510580F059
:102690000C9491120C94EC125F3FE4F3983ED4F347
:1026A000869577956795B795F795E7959F5FC1F7FD
:1026B000FE2B880F911D9695879597F90895F894AC
:0226C000FFCF4A
:1026C20000010101091F08000101010303010500C6
:1026D20000050053657420557365724E616D650087
:1026E2004D6178696D756D2063686172203A2000D2
:1026F200557365724E616D65204D75737420626508
:10270200204D6F7265207468616E200020436861FD
:102712007200526520456E74657220557365724E63
:10272200616D650050617373576F7264204D7573EC
:1027320074206265204D6F7265207468616E20009E
:102742005265205365742050617373576F72640031
:10275200436865636B20557365724E616D65004316
:102762006865636B2050617373576F7264005469BC
:102772006D65206F7574203A00506C656173652039
:102782005369676E205570005361766564205375F6
:10279200636365737366756C6C7900496E76616C00
:1027A200696420557365726E616D65206F72205089
:1027B200617373776F7264005472696573204C653C
:1027C2006674203A20005375636365737366756C93
:1027D2006C79205369676E20696E0053656E736F62
:1027E2007273203A00543A004C3A002500473A00EE
:1027F2004E005900533A0047617264656E20446F7F
:102802006F72203A2000312D204F70656E202020FB
:1028120020202000322D204C6F636B00312D20448C
:102822006F6F7200507265737320656E74657220EB
:10283200746F206F70656E2073797374656D0057C5
:10284200656C636F6D652000736F6D656F6E6520DB
:0C2852006F6E2074686520646F6F720068
:00000001FF
